{
  "_format": "hh-sol-artifact-1",
  "contractName": "Treasury",
  "sourceName": "contracts/Treasury.sol",
  "abi": [
    {
      "inputs": [
        {
          "internalType": "string",
          "name": "_name",
          "type": "string"
        },
        {
          "internalType": "address",
          "name": "_publicKey",
          "type": "address"
        }
      ],
      "stateMutability": "nonpayable",
      "type": "constructor"
    },
    {
      "inputs": [],
      "name": "InvalidShortString",
      "type": "error"
    },
    {
      "inputs": [
        {
          "internalType": "string",
          "name": "str",
          "type": "string"
        }
      ],
      "name": "StringTooLong",
      "type": "error"
    },
    {
      "anonymous": false,
      "inputs": [
        {
          "indexed": true,
          "internalType": "address",
          "name": "owner",
          "type": "address"
        },
        {
          "indexed": true,
          "internalType": "address",
          "name": "spender",
          "type": "address"
        },
        {
          "indexed": true,
          "internalType": "address",
          "name": "token",
          "type": "address"
        },
        {
          "indexed": false,
          "internalType": "uint256",
          "name": "amount",
          "type": "uint256"
        }
      ],
      "name": "Deposit",
      "type": "event"
    },
    {
      "anonymous": false,
      "inputs": [],
      "name": "EIP712DomainChanged",
      "type": "event"
    },
    {
      "anonymous": false,
      "inputs": [
        {
          "indexed": true,
          "internalType": "address",
          "name": "previousOwner",
          "type": "address"
        },
        {
          "indexed": true,
          "internalType": "address",
          "name": "newOwner",
          "type": "address"
        }
      ],
      "name": "OwnershipTransferred",
      "type": "event"
    },
    {
      "anonymous": false,
      "inputs": [
        {
          "indexed": true,
          "internalType": "address",
          "name": "owner",
          "type": "address"
        },
        {
          "indexed": true,
          "internalType": "address",
          "name": "spender",
          "type": "address"
        },
        {
          "indexed": true,
          "internalType": "address",
          "name": "token",
          "type": "address"
        },
        {
          "indexed": false,
          "internalType": "uint256",
          "name": "amount",
          "type": "uint256"
        },
        {
          "indexed": false,
          "internalType": "uint256",
          "name": "nonce",
          "type": "uint256"
        }
      ],
      "name": "Withdraw",
      "type": "event"
    },
    {
      "inputs": [],
      "name": "DOMAIN_SEPARATOR",
      "outputs": [
        {
          "internalType": "bytes32",
          "name": "",
          "type": "bytes32"
        }
      ],
      "stateMutability": "view",
      "type": "function"
    },
    {
      "inputs": [
        {
          "internalType": "address",
          "name": "token",
          "type": "address"
        },
        {
          "internalType": "uint256",
          "name": "amount",
          "type": "uint256"
        },
        {
          "internalType": "uint256",
          "name": "deadline",
          "type": "uint256"
        },
        {
          "internalType": "uint8",
          "name": "v",
          "type": "uint8"
        },
        {
          "internalType": "bytes32",
          "name": "r",
          "type": "bytes32"
        },
        {
          "internalType": "bytes32",
          "name": "s",
          "type": "bytes32"
        }
      ],
      "name": "depositPermit",
      "outputs": [],
      "stateMutability": "nonpayable",
      "type": "function"
    },
    {
      "inputs": [],
      "name": "eip712Domain",
      "outputs": [
        {
          "internalType": "bytes1",
          "name": "fields",
          "type": "bytes1"
        },
        {
          "internalType": "string",
          "name": "name",
          "type": "string"
        },
        {
          "internalType": "string",
          "name": "version",
          "type": "string"
        },
        {
          "internalType": "uint256",
          "name": "chainId",
          "type": "uint256"
        },
        {
          "internalType": "address",
          "name": "verifyingContract",
          "type": "address"
        },
        {
          "internalType": "bytes32",
          "name": "salt",
          "type": "bytes32"
        },
        {
          "internalType": "uint256[]",
          "name": "extensions",
          "type": "uint256[]"
        }
      ],
      "stateMutability": "view",
      "type": "function"
    },
    {
      "inputs": [
        {
          "internalType": "address",
          "name": "owner",
          "type": "address"
        }
      ],
      "name": "nonces",
      "outputs": [
        {
          "internalType": "uint256",
          "name": "",
          "type": "uint256"
        }
      ],
      "stateMutability": "view",
      "type": "function"
    },
    {
      "inputs": [],
      "name": "owner",
      "outputs": [
        {
          "internalType": "address",
          "name": "",
          "type": "address"
        }
      ],
      "stateMutability": "view",
      "type": "function"
    },
    {
      "inputs": [],
      "name": "renounceOwnership",
      "outputs": [],
      "stateMutability": "nonpayable",
      "type": "function"
    },
    {
      "inputs": [
        {
          "internalType": "address",
          "name": "newOwner",
          "type": "address"
        }
      ],
      "name": "transferOwnership",
      "outputs": [],
      "stateMutability": "nonpayable",
      "type": "function"
    },
    {
      "inputs": [
        {
          "internalType": "address",
          "name": "token",
          "type": "address"
        },
        {
          "internalType": "uint256",
          "name": "amount",
          "type": "uint256"
        },
        {
          "internalType": "uint256",
          "name": "deadline",
          "type": "uint256"
        },
        {
          "internalType": "uint8",
          "name": "v",
          "type": "uint8"
        },
        {
          "internalType": "bytes32",
          "name": "r",
          "type": "bytes32"
        },
        {
          "internalType": "bytes32",
          "name": "s",
          "type": "bytes32"
        },
        {
          "internalType": "address",
          "name": "to",
          "type": "address"
        }
      ],
      "name": "withdrawPermit",
      "outputs": [],
      "stateMutability": "nonpayable",
      "type": "function"
    }
  ],
  "bytecode": "0x6101606040523480156200001257600080fd5b50604051620029f2380380620029f2833981810160405281019062000038919062000587565b816040518060400160405280600181526020017f31000000000000000000000000000000000000000000000000000000000000008152506200008f620000836200019260201b60201c565b6200019a60201b60201c565b620000aa6001836200025e60201b620007e81790919060201c565b6101208181525050620000cd6002826200025e60201b620007e81790919060201c565b6101408181525050818051906020012060e08181525050808051906020012061010081815250504660a081815250506200010c620002bb60201b60201c565b608081815250503073ffffffffffffffffffffffffffffffffffffffff1660c08173ffffffffffffffffffffffffffffffffffffffff1681525050505080600360006101000a81548173ffffffffffffffffffffffffffffffffffffffff021916908373ffffffffffffffffffffffffffffffffffffffff160217905550505062000ad1565b600033905090565b60008060009054906101000a900473ffffffffffffffffffffffffffffffffffffffff169050816000806101000a81548173ffffffffffffffffffffffffffffffffffffffff021916908373ffffffffffffffffffffffffffffffffffffffff1602179055508173ffffffffffffffffffffffffffffffffffffffff168173ffffffffffffffffffffffffffffffffffffffff167f8be0079c531659141344cd1fd0a4f28419497f9722a3daafe3b4186f6b6457e060405160405180910390a35050565b600060208351101562000284576200027c836200031860201b60201c565b9050620002b5565b826200029b836200038560201b6200082c1760201c565b6000019081620002ac919062000838565b5060ff60001b90505b92915050565b60007f8b73c3c69bb8fe3d512ecc4cf759cc79239f7b179b0ffacaa9a75d522b39400f60e051610100514630604051602001620002fd9594939291906200095c565b60405160208183030381529060405280519060200120905090565b600080829050601f815111156200036857826040517f305a27a90000000000000000000000000000000000000000000000000000000081526004016200035f919062000a0b565b60405180910390fd5b805181620003769062000a61565b60001c1760001b915050919050565b6000819050919050565b6000604051905090565b600080fd5b600080fd5b600080fd5b600080fd5b6000601f19601f8301169050919050565b7f4e487b7100000000000000000000000000000000000000000000000000000000600052604160045260246000fd5b620003f882620003ad565b810181811067ffffffffffffffff821117156200041a5762000419620003be565b5b80604052505050565b60006200042f6200038f565b90506200043d8282620003ed565b919050565b600067ffffffffffffffff82111562000460576200045f620003be565b5b6200046b82620003ad565b9050602081019050919050565b60005b83811015620004985780820151818401526020810190506200047b565b60008484015250505050565b6000620004bb620004b58462000442565b62000423565b905082815260208101848484011115620004da57620004d9620003a8565b5b620004e784828562000478565b509392505050565b600082601f830112620005075762000506620003a3565b5b815162000519848260208601620004a4565b91505092915050565b600073ffffffffffffffffffffffffffffffffffffffff82169050919050565b60006200054f8262000522565b9050919050565b620005618162000542565b81146200056d57600080fd5b50565b600081519050620005818162000556565b92915050565b60008060408385031215620005a157620005a062000399565b5b600083015167ffffffffffffffff811115620005c257620005c16200039e565b5b620005d085828601620004ef565b9250506020620005e38582860162000570565b9150509250929050565b600081519050919050565b7f4e487b7100000000000000000000000000000000000000000000000000000000600052602260045260246000fd5b600060028204905060018216806200064057607f821691505b602082108103620006565762000655620005f8565b5b50919050565b60008190508160005260206000209050919050565b60006020601f8301049050919050565b600082821b905092915050565b600060088302620006c07fffffffffffffffffffffffffffffffffffffffffffffffffffffffffffffffff8262000681565b620006cc868362000681565b95508019841693508086168417925050509392505050565b6000819050919050565b6000819050919050565b600062000719620007136200070d84620006e4565b620006ee565b620006e4565b9050919050565b6000819050919050565b6200073583620006f8565b6200074d620007448262000720565b8484546200068e565b825550505050565b600090565b6200076462000755565b620007718184846200072a565b505050565b5b8181101562000799576200078d6000826200075a565b60018101905062000777565b5050565b601f821115620007e857620007b2816200065c565b620007bd8462000671565b81016020851015620007cd578190505b620007e5620007dc8562000671565b83018262000776565b50505b505050565b600082821c905092915050565b60006200080d60001984600802620007ed565b1980831691505092915050565b6000620008288383620007fa565b9150826002028217905092915050565b6200084382620005ed565b67ffffffffffffffff8111156200085f576200085e620003be565b5b6200086b825462000627565b620008788282856200079d565b600060209050601f831160018114620008b057600084156200089b578287015190505b620008a785826200081a565b86555062000917565b601f198416620008c0866200065c565b60005b82811015620008ea57848901518255600182019150602085019450602081019050620008c3565b868310156200090a578489015162000906601f891682620007fa565b8355505b6001600288020188555050505b505050505050565b6000819050919050565b62000934816200091f565b82525050565b6200094581620006e4565b82525050565b620009568162000542565b82525050565b600060a08201905062000973600083018862000929565b62000982602083018762000929565b62000991604083018662000929565b620009a060608301856200093a565b620009af60808301846200094b565b9695505050505050565b600082825260208201905092915050565b6000620009d782620005ed565b620009e38185620009b9565b9350620009f581856020860162000478565b62000a0081620003ad565b840191505092915050565b6000602082019050818103600083015262000a278184620009ca565b905092915050565b600081519050919050565b6000819050602082019050919050565b600062000a5882516200091f565b80915050919050565b600062000a6e8262000a2f565b8262000a7a8462000a3a565b905062000a878162000a4a565b9250602082101562000aca5762000ac57fffffffffffffffffffffffffffffffffffffffffffffffffffffffffffffffff8360200360080262000681565b831692505b5050919050565b60805160a05160c05160e051610100516101205161014051611ec662000b2c60003960006103d9015260006103a501526000610c3e01526000610c1d0152600061083a01526000610890015260006108b90152611ec66000f3fe608060405234801561001057600080fd5b50600436106100885760003560e01c806384b0196e1161005b57806384b0196e146101015780638da5cb5b14610125578063e9deb8ec14610143578063f2fde38b1461015f57610088565b80633644e5151461008d5780636b9d159d146100ab578063715018a6146100c75780637ecebe00146100d1575b600080fd5b61009561017b565b6040516100a29190611012565b60405180910390f35b6100c560048036038101906100c0919061112b565b61018a565b005b6100cf61032e565b005b6100eb60048036038101906100e691906111b8565b610342565b6040516100f891906111f4565b60405180910390f35b610109610392565b60405161011c97969594939291906113a7565b60405180910390f35b61012d610494565b60405161013a919061142b565b60405180910390f35b61015d60048036038101906101589190611446565b6104bd565b005b610179600480360381019061017491906111b8565b610765565b005b6000610185610836565b905090565b60003390508673ffffffffffffffffffffffffffffffffffffffff1663d505accf823089898989896040518863ffffffff1660e01b81526004016101d497969594939291906114f7565b600060405180830381600087803b1580156101ee57600080fd5b505af1158015610202573d6000803e3d6000fd5b505050508673ffffffffffffffffffffffffffffffffffffffff166323b872dd8230896040518463ffffffff1660e01b815260040161024393929190611566565b6020604051808303816000875af1158015610262573d6000803e3d6000fd5b505050506040513d601f19601f8201168201806040525081019061028691906115d5565b508673ffffffffffffffffffffffffffffffffffffffff16600360009054906101000a900473ffffffffffffffffffffffffffffffffffffffff1673ffffffffffffffffffffffffffffffffffffffff168273ffffffffffffffffffffffffffffffffffffffff167f7cfff908a4b583f36430b25d75964c458d8ede8a99bd61be750e97ee1b2f3a968960405161031d91906111f4565b60405180910390a450505050505050565b6103366108ed565b610340600061096b565b565b600061038b600460008473ffffffffffffffffffffffffffffffffffffffff1673ffffffffffffffffffffffffffffffffffffffff168152602001908152602001600020610a2f565b9050919050565b6000606080600080600060606103d260017f0000000000000000000000000000000000000000000000000000000000000000610a3d90919063ffffffff16565b61040660027f0000000000000000000000000000000000000000000000000000000000000000610a3d90919063ffffffff16565b46306000801b600067ffffffffffffffff81111561042757610426611602565b5b6040519080825280602002602001820160405280156104555781602001602082028036833780820191505090505b507f0f00000000000000000000000000000000000000000000000000000000000000959493929190965096509650965096509650965090919293949596565b60008060009054906101000a900473ffffffffffffffffffffffffffffffffffffffff16905090565b600033905060006104cd82610aed565b905086421115610512576040517f08c379a00000000000000000000000000000000000000000000000000000000081526004016105099061167d565b60405180910390fd5b60007fb2872331af372fb99aa18488c76abd422fc9db3d80996535e5f2aa8537f1a90f600360009054906101000a900473ffffffffffffffffffffffffffffffffffffffff16848c8c868d604051602001610573979695949392919061169d565b604051602081830303815290604052805190602001209050600061059682610b4b565b905060006105a6828a8a8a610b65565b9050600360009054906101000a900473ffffffffffffffffffffffffffffffffffffffff1673ffffffffffffffffffffffffffffffffffffffff168173ffffffffffffffffffffffffffffffffffffffff1614610638576040517f08c379a000000000000000000000000000000000000000000000000000000000815260040161062f90611758565b60405180910390fd5b8b73ffffffffffffffffffffffffffffffffffffffff1663a9059cbb878d6040518363ffffffff1660e01b8152600401610673929190611778565b6020604051808303816000875af1158015610692573d6000803e3d6000fd5b505050506040513d601f19601f820116820180604052508101906106b691906115d5565b508b73ffffffffffffffffffffffffffffffffffffffff168573ffffffffffffffffffffffffffffffffffffffff16600360009054906101000a900473ffffffffffffffffffffffffffffffffffffffff1673ffffffffffffffffffffffffffffffffffffffff167ffbde797d201c681b91056529119e0b02407c7bb96a4a2c75c01fc9667232c8db8e8860405161074f9291906117a1565b60405180910390a4505050505050505050505050565b61076d6108ed565b600073ffffffffffffffffffffffffffffffffffffffff168173ffffffffffffffffffffffffffffffffffffffff16036107dc576040517f08c379a00000000000000000000000000000000000000000000000000000000081526004016107d39061183c565b60405180910390fd5b6107e58161096b565b50565b6000602083511015610804576107fd83610b90565b9050610826565b8261080e8361082c565b600001908161081d9190611a68565b5060ff60001b90505b92915050565b6000819050919050565b60007f000000000000000000000000000000000000000000000000000000000000000073ffffffffffffffffffffffffffffffffffffffff163073ffffffffffffffffffffffffffffffffffffffff161480156108b257507f000000000000000000000000000000000000000000000000000000000000000046145b156108df577f000000000000000000000000000000000000000000000000000000000000000090506108ea565b6108e7610bf8565b90505b90565b6108f5610c8e565b73ffffffffffffffffffffffffffffffffffffffff16610913610494565b73ffffffffffffffffffffffffffffffffffffffff1614610969576040517f08c379a000000000000000000000000000000000000000000000000000000000815260040161096090611b86565b60405180910390fd5b565b60008060009054906101000a900473ffffffffffffffffffffffffffffffffffffffff169050816000806101000a81548173ffffffffffffffffffffffffffffffffffffffff021916908373ffffffffffffffffffffffffffffffffffffffff1602179055508173ffffffffffffffffffffffffffffffffffffffff168173ffffffffffffffffffffffffffffffffffffffff167f8be0079c531659141344cd1fd0a4f28419497f9722a3daafe3b4186f6b6457e060405160405180910390a35050565b600081600001549050919050565b606060ff60001b8314610a5a57610a5383610c96565b9050610ae7565b818054610a669061188b565b80601f0160208091040260200160405190810160405280929190818152602001828054610a929061188b565b8015610adf5780601f10610ab457610100808354040283529160200191610adf565b820191906000526020600020905b815481529060010190602001808311610ac257829003601f168201915b505050505090505b92915050565b600080600460008473ffffffffffffffffffffffffffffffffffffffff1673ffffffffffffffffffffffffffffffffffffffff1681526020019081526020016000209050610b3a81610a2f565b9150610b4581610d0a565b50919050565b6000610b5e610b58610836565b83610d20565b9050919050565b6000806000610b7687878787610d61565b91509150610b8381610e43565b8192505050949350505050565b600080829050601f81511115610bdd57826040517f305a27a9000000000000000000000000000000000000000000000000000000008152600401610bd49190611ba6565b60405180910390fd5b805181610be990611bf8565b60001c1760001b915050919050565b60007f8b73c3c69bb8fe3d512ecc4cf759cc79239f7b179b0ffacaa9a75d522b39400f7f00000000000000000000000000000000000000000000000000000000000000007f00000000000000000000000000000000000000000000000000000000000000004630604051602001610c73959493929190611c5f565b60405160208183030381529060405280519060200120905090565b600033905090565b60606000610ca383610fa9565b90506000602067ffffffffffffffff811115610cc257610cc1611602565b5b6040519080825280601f01601f191660200182016040528015610cf45781602001600182028036833780820191505090505b5090508181528360208201528092505050919050565b6001816000016000828254019250508190555050565b60006040517f190100000000000000000000000000000000000000000000000000000000000081528360028201528260228201526042812091505092915050565b6000807f7fffffffffffffffffffffffffffffff5d576e7357a4501ddfe92f46681b20a08360001c1115610d9c576000600391509150610e3a565b600060018787878760405160008152602001604052604051610dc19493929190611cb2565b6020604051602081039080840390855afa158015610de3573d6000803e3d6000fd5b505050602060405103519050600073ffffffffffffffffffffffffffffffffffffffff168173ffffffffffffffffffffffffffffffffffffffff1603610e3157600060019250925050610e3a565b80600092509250505b94509492505050565b60006004811115610e5757610e56611cf7565b5b816004811115610e6a57610e69611cf7565b5b0315610fa65760016004811115610e8457610e83611cf7565b5b816004811115610e9757610e96611cf7565b5b03610ed7576040517f08c379a0000000000000000000000000000000000000000000000000000000008152600401610ece90611d72565b60405180910390fd5b60026004811115610eeb57610eea611cf7565b5b816004811115610efe57610efd611cf7565b5b03610f3e576040517f08c379a0000000000000000000000000000000000000000000000000000000008152600401610f3590611dde565b60405180910390fd5b60036004811115610f5257610f51611cf7565b5b816004811115610f6557610f64611cf7565b5b03610fa5576040517f08c379a0000000000000000000000000000000000000000000000000000000008152600401610f9c90611e70565b60405180910390fd5b5b50565b60008060ff8360001c169050601f811115610ff0576040517fb3512b0c00000000000000000000000000000000000000000000000000000000815260040160405180910390fd5b80915050919050565b6000819050919050565b61100c81610ff9565b82525050565b60006020820190506110276000830184611003565b92915050565b600080fd5b600073ffffffffffffffffffffffffffffffffffffffff82169050919050565b600061105d82611032565b9050919050565b61106d81611052565b811461107857600080fd5b50565b60008135905061108a81611064565b92915050565b6000819050919050565b6110a381611090565b81146110ae57600080fd5b50565b6000813590506110c08161109a565b92915050565b600060ff82169050919050565b6110dc816110c6565b81146110e757600080fd5b50565b6000813590506110f9816110d3565b92915050565b61110881610ff9565b811461111357600080fd5b50565b600081359050611125816110ff565b92915050565b60008060008060008060c087890312156111485761114761102d565b5b600061115689828a0161107b565b965050602061116789828a016110b1565b955050604061117889828a016110b1565b945050606061118989828a016110ea565b935050608061119a89828a01611116565b92505060a06111ab89828a01611116565b9150509295509295509295565b6000602082840312156111ce576111cd61102d565b5b60006111dc8482850161107b565b91505092915050565b6111ee81611090565b82525050565b600060208201905061120960008301846111e5565b92915050565b60007fff0000000000000000000000000000000000000000000000000000000000000082169050919050565b6112448161120f565b82525050565b600081519050919050565b600082825260208201905092915050565b60005b83811015611284578082015181840152602081019050611269565b60008484015250505050565b6000601f19601f8301169050919050565b60006112ac8261124a565b6112b68185611255565b93506112c6818560208601611266565b6112cf81611290565b840191505092915050565b6112e381611052565b82525050565b600081519050919050565b600082825260208201905092915050565b6000819050602082019050919050565b61131e81611090565b82525050565b60006113308383611315565b60208301905092915050565b6000602082019050919050565b6000611354826112e9565b61135e81856112f4565b935061136983611305565b8060005b8381101561139a5781516113818882611324565b975061138c8361133c565b92505060018101905061136d565b5085935050505092915050565b600060e0820190506113bc600083018a61123b565b81810360208301526113ce81896112a1565b905081810360408301526113e281886112a1565b90506113f160608301876111e5565b6113fe60808301866112da565b61140b60a0830185611003565b81810360c083015261141d8184611349565b905098975050505050505050565b600060208201905061144060008301846112da565b92915050565b600080600080600080600060e0888a0312156114655761146461102d565b5b60006114738a828b0161107b565b97505060206114848a828b016110b1565b96505060406114958a828b016110b1565b95505060606114a68a828b016110ea565b94505060806114b78a828b01611116565b93505060a06114c88a828b01611116565b92505060c06114d98a828b0161107b565b91505092959891949750929550565b6114f1816110c6565b82525050565b600060e08201905061150c600083018a6112da565b61151960208301896112da565b61152660408301886111e5565b61153360608301876111e5565b61154060808301866114e8565b61154d60a0830185611003565b61155a60c0830184611003565b98975050505050505050565b600060608201905061157b60008301866112da565b61158860208301856112da565b61159560408301846111e5565b949350505050565b60008115159050919050565b6115b28161159d565b81146115bd57600080fd5b50565b6000815190506115cf816115a9565b92915050565b6000602082840312156115eb576115ea61102d565b5b60006115f9848285016115c0565b91505092915050565b7f4e487b7100000000000000000000000000000000000000000000000000000000600052604160045260246000fd5b7f45524332305065726d69743a206578706972656420646561646c696e65000000600082015250565b6000611667601d83611255565b915061167282611631565b602082019050919050565b600060208201905081810360008301526116968161165a565b9050919050565b600060e0820190506116b2600083018a611003565b6116bf60208301896112da565b6116cc60408301886112da565b6116d960608301876112da565b6116e660808301866111e5565b6116f360a08301856111e5565b61170060c08301846111e5565b98975050505050505050565b7f45524332305065726d69743a20696e76616c6964207369676e61747572650000600082015250565b6000611742601e83611255565b915061174d8261170c565b602082019050919050565b6000602082019050818103600083015261177181611735565b9050919050565b600060408201905061178d60008301856112da565b61179a60208301846111e5565b9392505050565b60006040820190506117b660008301856111e5565b6117c360208301846111e5565b9392505050565b7f4f776e61626c653a206e6577206f776e657220697320746865207a65726f206160008201527f6464726573730000000000000000000000000000000000000000000000000000602082015250565b6000611826602683611255565b9150611831826117ca565b604082019050919050565b6000602082019050818103600083015261185581611819565b9050919050565b7f4e487b7100000000000000000000000000000000000000000000000000000000600052602260045260246000fd5b600060028204905060018216806118a357607f821691505b6020821081036118b6576118b561185c565b5b50919050565b60008190508160005260206000209050919050565b60006020601f8301049050919050565b600082821b905092915050565b60006008830261191e7fffffffffffffffffffffffffffffffffffffffffffffffffffffffffffffffff826118e1565b61192886836118e1565b95508019841693508086168417925050509392505050565b6000819050919050565b600061196561196061195b84611090565b611940565b611090565b9050919050565b6000819050919050565b61197f8361194a565b61199361198b8261196c565b8484546118ee565b825550505050565b600090565b6119a861199b565b6119b3818484611976565b505050565b5b818110156119d7576119cc6000826119a0565b6001810190506119b9565b5050565b601f821115611a1c576119ed816118bc565b6119f6846118d1565b81016020851015611a05578190505b611a19611a11856118d1565b8301826119b8565b50505b505050565b600082821c905092915050565b6000611a3f60001984600802611a21565b1980831691505092915050565b6000611a588383611a2e565b9150826002028217905092915050565b611a718261124a565b67ffffffffffffffff811115611a8a57611a89611602565b5b611a94825461188b565b611a9f8282856119db565b600060209050601f831160018114611ad25760008415611ac0578287015190505b611aca8582611a4c565b865550611b32565b601f198416611ae0866118bc565b60005b82811015611b0857848901518255600182019150602085019450602081019050611ae3565b86831015611b255784890151611b21601f891682611a2e565b8355505b6001600288020188555050505b505050505050565b7f4f776e61626c653a2063616c6c6572206973206e6f7420746865206f776e6572600082015250565b6000611b70602083611255565b9150611b7b82611b3a565b602082019050919050565b60006020820190508181036000830152611b9f81611b63565b9050919050565b60006020820190508181036000830152611bc081846112a1565b905092915050565b600081519050919050565b6000819050602082019050919050565b6000611bef8251610ff9565b80915050919050565b6000611c0382611bc8565b82611c0d84611bd3565b9050611c1881611be3565b92506020821015611c5857611c537fffffffffffffffffffffffffffffffffffffffffffffffffffffffffffffffff836020036008026118e1565b831692505b5050919050565b600060a082019050611c746000830188611003565b611c816020830187611003565b611c8e6040830186611003565b611c9b60608301856111e5565b611ca860808301846112da565b9695505050505050565b6000608082019050611cc76000830187611003565b611cd460208301866114e8565b611ce16040830185611003565b611cee6060830184611003565b95945050505050565b7f4e487b7100000000000000000000000000000000000000000000000000000000600052602160045260246000fd5b7f45434453413a20696e76616c6964207369676e61747572650000000000000000600082015250565b6000611d5c601883611255565b9150611d6782611d26565b602082019050919050565b60006020820190508181036000830152611d8b81611d4f565b9050919050565b7f45434453413a20696e76616c6964207369676e6174757265206c656e67746800600082015250565b6000611dc8601f83611255565b9150611dd382611d92565b602082019050919050565b60006020820190508181036000830152611df781611dbb565b9050919050565b7f45434453413a20696e76616c6964207369676e6174757265202773272076616c60008201527f7565000000000000000000000000000000000000000000000000000000000000602082015250565b6000611e5a602283611255565b9150611e6582611dfe565b604082019050919050565b60006020820190508181036000830152611e8981611e4d565b905091905056fea26469706673582212206d8582cb10061ea64607cf183ac7225613e157916d08a6648cff4d04bfbf7ed764736f6c63430008120033",
  "linkReferences": {},
  "deployedLinkReferences": {}
}