{
  "_format": "hh-sol-artifact-1",
  "contractName": "Treasury",
  "sourceName": "contracts/Treasury.sol",
  "abi": [
    {
      "inputs": [],
      "stateMutability": "nonpayable",
      "type": "constructor"
    },
    {
      "anonymous": false,
      "inputs": [
        {
          "indexed": true,
          "internalType": "address",
          "name": "tokenAddress",
          "type": "address"
        },
        {
          "indexed": true,
          "internalType": "address",
          "name": "userAddress",
          "type": "address"
        },
        {
          "indexed": false,
          "internalType": "uint256",
          "name": "amount",
          "type": "uint256"
        }
      ],
      "name": "Deposit",
      "type": "event"
    },
    {
      "anonymous": false,
      "inputs": [
        {
          "indexed": true,
          "internalType": "address",
          "name": "previousOwner",
          "type": "address"
        },
        {
          "indexed": true,
          "internalType": "address",
          "name": "newOwner",
          "type": "address"
        }
      ],
      "name": "OwnershipTransferred",
      "type": "event"
    },
    {
      "anonymous": false,
      "inputs": [
        {
          "indexed": true,
          "internalType": "address",
          "name": "tokenAddress",
          "type": "address"
        },
        {
          "indexed": true,
          "internalType": "address",
          "name": "userAddress",
          "type": "address"
        },
        {
          "indexed": false,
          "internalType": "uint256",
          "name": "value",
          "type": "uint256"
        }
      ],
      "name": "SetBalance",
      "type": "event"
    },
    {
      "anonymous": false,
      "inputs": [
        {
          "indexed": true,
          "internalType": "address",
          "name": "tokenAddress",
          "type": "address"
        },
        {
          "indexed": true,
          "internalType": "address",
          "name": "userAddress",
          "type": "address"
        },
        {
          "indexed": false,
          "internalType": "uint256",
          "name": "amount",
          "type": "uint256"
        }
      ],
      "name": "Withdraw",
      "type": "event"
    },
    {
      "inputs": [
        {
          "internalType": "address",
          "name": "tokenAddress",
          "type": "address"
        },
        {
          "internalType": "address",
          "name": "userAddress",
          "type": "address"
        }
      ],
      "name": "balanceOf",
      "outputs": [
        {
          "internalType": "uint256",
          "name": "",
          "type": "uint256"
        }
      ],
      "stateMutability": "view",
      "type": "function"
    },
    {
      "inputs": [
        {
          "internalType": "address",
          "name": "tokenAddress",
          "type": "address"
        },
        {
          "internalType": "uint256",
          "name": "amount",
          "type": "uint256"
        }
      ],
      "name": "deposit",
      "outputs": [],
      "stateMutability": "nonpayable",
      "type": "function"
    },
    {
      "inputs": [
        {
          "internalType": "address",
          "name": "tokenAddress",
          "type": "address"
        },
        {
          "internalType": "uint256",
          "name": "amount",
          "type": "uint256"
        },
        {
          "internalType": "uint256",
          "name": "deadline",
          "type": "uint256"
        },
        {
          "internalType": "uint8",
          "name": "v",
          "type": "uint8"
        },
        {
          "internalType": "bytes32",
          "name": "r",
          "type": "bytes32"
        },
        {
          "internalType": "bytes32",
          "name": "s",
          "type": "bytes32"
        }
      ],
      "name": "depositPermit",
      "outputs": [],
      "stateMutability": "nonpayable",
      "type": "function"
    },
    {
      "inputs": [],
      "name": "owner",
      "outputs": [
        {
          "internalType": "address",
          "name": "",
          "type": "address"
        }
      ],
      "stateMutability": "view",
      "type": "function"
    },
    {
      "inputs": [],
      "name": "renounceOwnership",
      "outputs": [],
      "stateMutability": "nonpayable",
      "type": "function"
    },
    {
      "inputs": [
        {
          "internalType": "address",
          "name": "tokenAddress",
          "type": "address"
        },
        {
          "internalType": "address",
          "name": "userAddress",
          "type": "address"
        },
        {
          "internalType": "uint256",
          "name": "value",
          "type": "uint256"
        }
      ],
      "name": "setBalance",
      "outputs": [],
      "stateMutability": "nonpayable",
      "type": "function"
    },
    {
      "inputs": [
        {
          "components": [
            {
              "internalType": "address",
              "name": "tokenAddress",
              "type": "address"
            },
            {
              "internalType": "address",
              "name": "userAddress",
              "type": "address"
            },
            {
              "internalType": "uint256",
              "name": "value",
              "type": "uint256"
            }
          ],
          "internalType": "struct Treasury.BalanceUpdate[]",
          "name": "updates",
          "type": "tuple[]"
        }
      ],
      "name": "setBalances",
      "outputs": [],
      "stateMutability": "nonpayable",
      "type": "function"
    },
    {
      "inputs": [
        {
          "internalType": "address",
          "name": "newOwner",
          "type": "address"
        }
      ],
      "name": "transferOwnership",
      "outputs": [],
      "stateMutability": "nonpayable",
      "type": "function"
    },
    {
      "inputs": [
        {
          "internalType": "address",
          "name": "tokenAddress",
          "type": "address"
        },
        {
          "internalType": "address",
          "name": "userAddress",
          "type": "address"
        },
        {
          "internalType": "uint256",
          "name": "amount",
          "type": "uint256"
        }
      ],
      "name": "withdraw",
      "outputs": [],
      "stateMutability": "nonpayable",
      "type": "function"
    }
  ],
  "bytecode": "0x608060405234801561001057600080fd5b5061002d61002261003260201b60201c565b61003a60201b60201c565b6100fe565b600033905090565b60008060009054906101000a900473ffffffffffffffffffffffffffffffffffffffff169050816000806101000a81548173ffffffffffffffffffffffffffffffffffffffff021916908373ffffffffffffffffffffffffffffffffffffffff1602179055508173ffffffffffffffffffffffffffffffffffffffff168173ffffffffffffffffffffffffffffffffffffffff167f8be0079c531659141344cd1fd0a4f28419497f9722a3daafe3b4186f6b6457e060405160405180910390a35050565b6115178061010d6000396000f3fe608060405234801561001057600080fd5b50600436106100935760003560e01c8063b5c9cbbe11610066578063b5c9cbbe146100f8578063caa8f46a14610114578063d9caed1214610130578063f2fde38b1461014c578063f7888aec1461016857610093565b806347e7ef24146100985780636b9d159d146100b4578063715018a6146100d05780638da5cb5b146100da575b600080fd5b6100b260048036038101906100ad9190610d17565b610198565b005b6100ce60048036038101906100c99190610dc6565b61031b565b005b6100d8610519565b005b6100e261052d565b6040516100ef9190610e62565b60405180910390f35b610112600480360381019061010d9190610e7d565b610556565b005b61012e60048036038101906101299190611092565b610649565b005b61014a60048036038101906101459190610e7d565b61080e565b005b610166600480360381019061016191906110db565b610a1b565b005b610182600480360381019061017d9190611108565b610a9e565b60405161018f9190611157565b60405180910390f35b60003390508273ffffffffffffffffffffffffffffffffffffffff166323b872dd8230856040518463ffffffff1660e01b81526004016101da93929190611172565b6020604051808303816000875af11580156101f9573d6000803e3d6000fd5b505050506040513d601f19601f8201168201806040525081019061021d91906111e1565b5081600160008573ffffffffffffffffffffffffffffffffffffffff1673ffffffffffffffffffffffffffffffffffffffff16815260200190815260200160002060008373ffffffffffffffffffffffffffffffffffffffff1673ffffffffffffffffffffffffffffffffffffffff16815260200190815260200160002060008282546102aa919061123d565b925050819055508073ffffffffffffffffffffffffffffffffffffffff168373ffffffffffffffffffffffffffffffffffffffff167f5548c837ab068cf56a2c2479df0882a4922fd203edb7517321831d95078c5f628460405161030e9190611157565b60405180910390a3505050565b60003390508673ffffffffffffffffffffffffffffffffffffffff1663d505accf823089898989896040518863ffffffff1660e01b8152600401610365979695949392919061128f565b600060405180830381600087803b15801561037f57600080fd5b505af1158015610393573d6000803e3d6000fd5b505050508673ffffffffffffffffffffffffffffffffffffffff166323b872dd8230896040518463ffffffff1660e01b81526004016103d493929190611172565b6020604051808303816000875af11580156103f3573d6000803e3d6000fd5b505050506040513d601f19601f8201168201806040525081019061041791906111e1565b5085600160008973ffffffffffffffffffffffffffffffffffffffff1673ffffffffffffffffffffffffffffffffffffffff16815260200190815260200160002060008373ffffffffffffffffffffffffffffffffffffffff1673ffffffffffffffffffffffffffffffffffffffff16815260200190815260200160002060008282546104a4919061123d565b925050819055508073ffffffffffffffffffffffffffffffffffffffff168773ffffffffffffffffffffffffffffffffffffffff167f5548c837ab068cf56a2c2479df0882a4922fd203edb7517321831d95078c5f62886040516105089190611157565b60405180910390a350505050505050565b610521610b25565b61052b6000610ba3565b565b60008060009054906101000a900473ffffffffffffffffffffffffffffffffffffffff16905090565b61055e610b25565b80600160008573ffffffffffffffffffffffffffffffffffffffff1673ffffffffffffffffffffffffffffffffffffffff16815260200190815260200160002060008473ffffffffffffffffffffffffffffffffffffffff1673ffffffffffffffffffffffffffffffffffffffff168152602001908152602001600020819055508173ffffffffffffffffffffffffffffffffffffffff168373ffffffffffffffffffffffffffffffffffffffff167f126b59a688652e5e281e5d537324ef038d6365e6df6c28dd48e5a9c5df7791a78360405161063c9190611157565b60405180910390a3505050565b610651610b25565b60005b815181101561080a578181815181106106705761066f6112fe565b5b60200260200101516040015160016000848481518110610693576106926112fe565b5b60200260200101516000015173ffffffffffffffffffffffffffffffffffffffff1673ffffffffffffffffffffffffffffffffffffffff16815260200190815260200160002060008484815181106106ee576106ed6112fe565b5b60200260200101516020015173ffffffffffffffffffffffffffffffffffffffff1673ffffffffffffffffffffffffffffffffffffffff1681526020019081526020016000208190555081818151811061074b5761074a6112fe565b5b60200260200101516020015173ffffffffffffffffffffffffffffffffffffffff168282815181106107805761077f6112fe565b5b60200260200101516000015173ffffffffffffffffffffffffffffffffffffffff167f126b59a688652e5e281e5d537324ef038d6365e6df6c28dd48e5a9c5df7791a78484815181106107d6576107d56112fe565b5b6020026020010151604001516040516107ef9190611157565b60405180910390a380806108029061132d565b915050610654565b5050565b610816610b25565b80600160008573ffffffffffffffffffffffffffffffffffffffff1673ffffffffffffffffffffffffffffffffffffffff16815260200190815260200160002060008473ffffffffffffffffffffffffffffffffffffffff1673ffffffffffffffffffffffffffffffffffffffff16815260200190815260200160002054101561089f57600080fd5b80600160008573ffffffffffffffffffffffffffffffffffffffff1673ffffffffffffffffffffffffffffffffffffffff16815260200190815260200160002060008473ffffffffffffffffffffffffffffffffffffffff1673ffffffffffffffffffffffffffffffffffffffff168152602001908152602001600020600082825461092b9190611375565b925050819055508273ffffffffffffffffffffffffffffffffffffffff1663a9059cbb83836040518363ffffffff1660e01b815260040161096d9291906113a9565b6020604051808303816000875af115801561098c573d6000803e3d6000fd5b505050506040513d601f19601f820116820180604052508101906109b091906111e1565b508173ffffffffffffffffffffffffffffffffffffffff168373ffffffffffffffffffffffffffffffffffffffff167f9b1bfa7fa9ee420a16e124f794c35ac9f90472acc99140eb2f6447c714cad8eb83604051610a0e9190611157565b60405180910390a3505050565b610a23610b25565b600073ffffffffffffffffffffffffffffffffffffffff168173ffffffffffffffffffffffffffffffffffffffff1603610a92576040517f08c379a0000000000000000000000000000000000000000000000000000000008152600401610a8990611455565b60405180910390fd5b610a9b81610ba3565b50565b6000600160008473ffffffffffffffffffffffffffffffffffffffff1673ffffffffffffffffffffffffffffffffffffffff16815260200190815260200160002060008373ffffffffffffffffffffffffffffffffffffffff1673ffffffffffffffffffffffffffffffffffffffff16815260200190815260200160002054905092915050565b610b2d610c67565b73ffffffffffffffffffffffffffffffffffffffff16610b4b61052d565b73ffffffffffffffffffffffffffffffffffffffff1614610ba1576040517f08c379a0000000000000000000000000000000000000000000000000000000008152600401610b98906114c1565b60405180910390fd5b565b60008060009054906101000a900473ffffffffffffffffffffffffffffffffffffffff169050816000806101000a81548173ffffffffffffffffffffffffffffffffffffffff021916908373ffffffffffffffffffffffffffffffffffffffff1602179055508173ffffffffffffffffffffffffffffffffffffffff168173ffffffffffffffffffffffffffffffffffffffff167f8be0079c531659141344cd1fd0a4f28419497f9722a3daafe3b4186f6b6457e060405160405180910390a35050565b600033905090565b6000604051905090565b600080fd5b600080fd5b600073ffffffffffffffffffffffffffffffffffffffff82169050919050565b6000610cae82610c83565b9050919050565b610cbe81610ca3565b8114610cc957600080fd5b50565b600081359050610cdb81610cb5565b92915050565b6000819050919050565b610cf481610ce1565b8114610cff57600080fd5b50565b600081359050610d1181610ceb565b92915050565b60008060408385031215610d2e57610d2d610c79565b5b6000610d3c85828601610ccc565b9250506020610d4d85828601610d02565b9150509250929050565b600060ff82169050919050565b610d6d81610d57565b8114610d7857600080fd5b50565b600081359050610d8a81610d64565b92915050565b6000819050919050565b610da381610d90565b8114610dae57600080fd5b50565b600081359050610dc081610d9a565b92915050565b60008060008060008060c08789031215610de357610de2610c79565b5b6000610df189828a01610ccc565b9650506020610e0289828a01610d02565b9550506040610e1389828a01610d02565b9450506060610e2489828a01610d7b565b9350506080610e3589828a01610db1565b92505060a0610e4689828a01610db1565b9150509295509295509295565b610e5c81610ca3565b82525050565b6000602082019050610e776000830184610e53565b92915050565b600080600060608486031215610e9657610e95610c79565b5b6000610ea486828701610ccc565b9350506020610eb586828701610ccc565b9250506040610ec686828701610d02565b9150509250925092565b600080fd5b6000601f19601f8301169050919050565b7f4e487b7100000000000000000000000000000000000000000000000000000000600052604160045260246000fd5b610f1e82610ed5565b810181811067ffffffffffffffff82111715610f3d57610f3c610ee6565b5b80604052505050565b6000610f50610c6f565b9050610f5c8282610f15565b919050565b600067ffffffffffffffff821115610f7c57610f7b610ee6565b5b602082029050602081019050919050565b600080fd5b600080fd5b600060608284031215610fad57610fac610f92565b5b610fb76060610f46565b90506000610fc784828501610ccc565b6000830152506020610fdb84828501610ccc565b6020830152506040610fef84828501610d02565b60408301525092915050565b600061100e61100984610f61565b610f46565b9050808382526020820190506060840283018581111561103157611030610f8d565b5b835b8181101561105a57806110468882610f97565b845260208401935050606081019050611033565b5050509392505050565b600082601f83011261107957611078610ed0565b5b8135611089848260208601610ffb565b91505092915050565b6000602082840312156110a8576110a7610c79565b5b600082013567ffffffffffffffff8111156110c6576110c5610c7e565b5b6110d284828501611064565b91505092915050565b6000602082840312156110f1576110f0610c79565b5b60006110ff84828501610ccc565b91505092915050565b6000806040838503121561111f5761111e610c79565b5b600061112d85828601610ccc565b925050602061113e85828601610ccc565b9150509250929050565b61115181610ce1565b82525050565b600060208201905061116c6000830184611148565b92915050565b60006060820190506111876000830186610e53565b6111946020830185610e53565b6111a16040830184611148565b949350505050565b60008115159050919050565b6111be816111a9565b81146111c957600080fd5b50565b6000815190506111db816111b5565b92915050565b6000602082840312156111f7576111f6610c79565b5b6000611205848285016111cc565b91505092915050565b7f4e487b7100000000000000000000000000000000000000000000000000000000600052601160045260246000fd5b600061124882610ce1565b915061125383610ce1565b925082820190508082111561126b5761126a61120e565b5b92915050565b61127a81610d57565b82525050565b61128981610d90565b82525050565b600060e0820190506112a4600083018a610e53565b6112b16020830189610e53565b6112be6040830188611148565b6112cb6060830187611148565b6112d86080830186611271565b6112e560a0830185611280565b6112f260c0830184611280565b98975050505050505050565b7f4e487b7100000000000000000000000000000000000000000000000000000000600052603260045260246000fd5b600061133882610ce1565b91507fffffffffffffffffffffffffffffffffffffffffffffffffffffffffffffffff820361136a5761136961120e565b5b600182019050919050565b600061138082610ce1565b915061138b83610ce1565b92508282039050818111156113a3576113a261120e565b5b92915050565b60006040820190506113be6000830185610e53565b6113cb6020830184611148565b9392505050565b600082825260208201905092915050565b7f4f776e61626c653a206e6577206f776e657220697320746865207a65726f206160008201527f6464726573730000000000000000000000000000000000000000000000000000602082015250565b600061143f6026836113d2565b915061144a826113e3565b604082019050919050565b6000602082019050818103600083015261146e81611432565b9050919050565b7f4f776e61626c653a2063616c6c6572206973206e6f7420746865206f776e6572600082015250565b60006114ab6020836113d2565b91506114b682611475565b602082019050919050565b600060208201905081810360008301526114da8161149e565b905091905056fea264697066735822122039bfad266c565f0a90e8f324f71669a83ed207ac140722b5f0b74159c712c18564736f6c63430008120033",
  "linkReferences": {},
  "deployedLinkReferences": {}
}