{
  "_format": "hh-sol-artifact-1",
  "contractName": "Treasury",
  "sourceName": "contracts/Treasury.sol",
  "abi": [
    {
      "inputs": [
        {
          "internalType": "string",
          "name": "_name",
          "type": "string"
        },
        {
          "internalType": "address",
          "name": "_publicKey",
          "type": "address"
        }
      ],
      "stateMutability": "nonpayable",
      "type": "constructor"
    },
    {
      "inputs": [],
      "name": "InvalidShortString",
      "type": "error"
    },
    {
      "inputs": [
        {
          "internalType": "string",
          "name": "str",
          "type": "string"
        }
      ],
      "name": "StringTooLong",
      "type": "error"
    },
    {
      "anonymous": false,
      "inputs": [
        {
          "indexed": true,
          "internalType": "address",
          "name": "owner",
          "type": "address"
        },
        {
          "indexed": true,
          "internalType": "address",
          "name": "spender",
          "type": "address"
        },
        {
          "indexed": true,
          "internalType": "address",
          "name": "token",
          "type": "address"
        },
        {
          "indexed": false,
          "internalType": "uint256",
          "name": "amount",
          "type": "uint256"
        }
      ],
      "name": "Deposit",
      "type": "event"
    },
    {
      "anonymous": false,
      "inputs": [],
      "name": "EIP712DomainChanged",
      "type": "event"
    },
    {
      "anonymous": false,
      "inputs": [
        {
          "indexed": true,
          "internalType": "address",
          "name": "previousOwner",
          "type": "address"
        },
        {
          "indexed": true,
          "internalType": "address",
          "name": "newOwner",
          "type": "address"
        }
      ],
      "name": "OwnershipTransferred",
      "type": "event"
    },
    {
      "anonymous": false,
      "inputs": [
        {
          "indexed": true,
          "internalType": "address",
          "name": "owner",
          "type": "address"
        },
        {
          "indexed": true,
          "internalType": "address",
          "name": "spender",
          "type": "address"
        },
        {
          "indexed": true,
          "internalType": "address",
          "name": "token",
          "type": "address"
        },
        {
          "indexed": false,
          "internalType": "uint256",
          "name": "amount",
          "type": "uint256"
        },
        {
          "indexed": false,
          "internalType": "uint256",
          "name": "nonce",
          "type": "uint256"
        }
      ],
      "name": "Withdraw",
      "type": "event"
    },
    {
      "inputs": [],
      "name": "DOMAIN_SEPARATOR",
      "outputs": [
        {
          "internalType": "bytes32",
          "name": "",
          "type": "bytes32"
        }
      ],
      "stateMutability": "view",
      "type": "function"
    },
    {
      "inputs": [
        {
          "internalType": "address",
          "name": "token",
          "type": "address"
        },
        {
          "internalType": "uint256",
          "name": "amount",
          "type": "uint256"
        },
        {
          "internalType": "uint256",
          "name": "deadline",
          "type": "uint256"
        },
        {
          "internalType": "uint8",
          "name": "v",
          "type": "uint8"
        },
        {
          "internalType": "bytes32",
          "name": "r",
          "type": "bytes32"
        },
        {
          "internalType": "bytes32",
          "name": "s",
          "type": "bytes32"
        }
      ],
      "name": "depositPermit",
      "outputs": [],
      "stateMutability": "nonpayable",
      "type": "function"
    },
    {
      "inputs": [],
      "name": "eip712Domain",
      "outputs": [
        {
          "internalType": "bytes1",
          "name": "fields",
          "type": "bytes1"
        },
        {
          "internalType": "string",
          "name": "name",
          "type": "string"
        },
        {
          "internalType": "string",
          "name": "version",
          "type": "string"
        },
        {
          "internalType": "uint256",
          "name": "chainId",
          "type": "uint256"
        },
        {
          "internalType": "address",
          "name": "verifyingContract",
          "type": "address"
        },
        {
          "internalType": "bytes32",
          "name": "salt",
          "type": "bytes32"
        },
        {
          "internalType": "uint256[]",
          "name": "extensions",
          "type": "uint256[]"
        }
      ],
      "stateMutability": "view",
      "type": "function"
    },
    {
      "inputs": [],
      "name": "name",
      "outputs": [
        {
          "internalType": "string",
          "name": "",
          "type": "string"
        }
      ],
      "stateMutability": "view",
      "type": "function"
    },
    {
      "inputs": [
        {
          "internalType": "address",
          "name": "owner",
          "type": "address"
        }
      ],
      "name": "nonces",
      "outputs": [
        {
          "internalType": "uint256",
          "name": "",
          "type": "uint256"
        }
      ],
      "stateMutability": "view",
      "type": "function"
    },
    {
      "inputs": [],
      "name": "owner",
      "outputs": [
        {
          "internalType": "address",
          "name": "",
          "type": "address"
        }
      ],
      "stateMutability": "view",
      "type": "function"
    },
    {
      "inputs": [],
      "name": "renounceOwnership",
      "outputs": [],
      "stateMutability": "nonpayable",
      "type": "function"
    },
    {
      "inputs": [
        {
          "internalType": "address",
          "name": "newOwner",
          "type": "address"
        }
      ],
      "name": "transferOwnership",
      "outputs": [],
      "stateMutability": "nonpayable",
      "type": "function"
    },
    {
      "inputs": [
        {
          "internalType": "address",
          "name": "token",
          "type": "address"
        },
        {
          "internalType": "uint256",
          "name": "amount",
          "type": "uint256"
        },
        {
          "internalType": "uint256",
          "name": "deadline",
          "type": "uint256"
        },
        {
          "internalType": "uint8",
          "name": "v",
          "type": "uint8"
        },
        {
          "internalType": "bytes32",
          "name": "r",
          "type": "bytes32"
        },
        {
          "internalType": "bytes32",
          "name": "s",
          "type": "bytes32"
        },
        {
          "internalType": "address",
          "name": "to",
          "type": "address"
        }
      ],
      "name": "withdrawPermit",
      "outputs": [],
      "stateMutability": "nonpayable",
      "type": "function"
    }
  ],
  "bytecode": "0x6101606040523480156200001257600080fd5b5060405162002abf38038062002abf833981810160405281019062000038919062000599565b816040518060400160405280600181526020017f31000000000000000000000000000000000000000000000000000000000000008152506200008f62000083620001a460201b60201c565b620001ac60201b60201c565b620000aa6001836200027060201b620008a31790919060201c565b6101208181525050620000cd6002826200027060201b620008a31790919060201c565b6101408181525050818051906020012060e08181525050808051906020012061010081815250504660a081815250506200010c620002cd60201b60201c565b608081815250503073ffffffffffffffffffffffffffffffffffffffff1660c08173ffffffffffffffffffffffffffffffffffffffff1681525050505080600360006101000a81548173ffffffffffffffffffffffffffffffffffffffff021916908373ffffffffffffffffffffffffffffffffffffffff16021790555081600490816200019b91906200084a565b50505062000ae3565b600033905090565b60008060009054906101000a900473ffffffffffffffffffffffffffffffffffffffff169050816000806101000a81548173ffffffffffffffffffffffffffffffffffffffff021916908373ffffffffffffffffffffffffffffffffffffffff1602179055508173ffffffffffffffffffffffffffffffffffffffff168173ffffffffffffffffffffffffffffffffffffffff167f8be0079c531659141344cd1fd0a4f28419497f9722a3daafe3b4186f6b6457e060405160405180910390a35050565b600060208351101562000296576200028e836200032a60201b60201c565b9050620002c7565b82620002ad836200039760201b620008e71760201c565b6000019081620002be91906200084a565b5060ff60001b90505b92915050565b60007f8b73c3c69bb8fe3d512ecc4cf759cc79239f7b179b0ffacaa9a75d522b39400f60e0516101005146306040516020016200030f9594939291906200096e565b60405160208183030381529060405280519060200120905090565b600080829050601f815111156200037a57826040517f305a27a900000000000000000000000000000000000000000000000000000000815260040162000371919062000a1d565b60405180910390fd5b805181620003889062000a73565b60001c1760001b915050919050565b6000819050919050565b6000604051905090565b600080fd5b600080fd5b600080fd5b600080fd5b6000601f19601f8301169050919050565b7f4e487b7100000000000000000000000000000000000000000000000000000000600052604160045260246000fd5b6200040a82620003bf565b810181811067ffffffffffffffff821117156200042c576200042b620003d0565b5b80604052505050565b600062000441620003a1565b90506200044f8282620003ff565b919050565b600067ffffffffffffffff821115620004725762000471620003d0565b5b6200047d82620003bf565b9050602081019050919050565b60005b83811015620004aa5780820151818401526020810190506200048d565b60008484015250505050565b6000620004cd620004c78462000454565b62000435565b905082815260208101848484011115620004ec57620004eb620003ba565b5b620004f98482856200048a565b509392505050565b600082601f830112620005195762000518620003b5565b5b81516200052b848260208601620004b6565b91505092915050565b600073ffffffffffffffffffffffffffffffffffffffff82169050919050565b6000620005618262000534565b9050919050565b620005738162000554565b81146200057f57600080fd5b50565b600081519050620005938162000568565b92915050565b60008060408385031215620005b357620005b2620003ab565b5b600083015167ffffffffffffffff811115620005d457620005d3620003b0565b5b620005e28582860162000501565b9250506020620005f58582860162000582565b9150509250929050565b600081519050919050565b7f4e487b7100000000000000000000000000000000000000000000000000000000600052602260045260246000fd5b600060028204905060018216806200065257607f821691505b6020821081036200066857620006676200060a565b5b50919050565b60008190508160005260206000209050919050565b60006020601f8301049050919050565b600082821b905092915050565b600060088302620006d27fffffffffffffffffffffffffffffffffffffffffffffffffffffffffffffffff8262000693565b620006de868362000693565b95508019841693508086168417925050509392505050565b6000819050919050565b6000819050919050565b60006200072b620007256200071f84620006f6565b62000700565b620006f6565b9050919050565b6000819050919050565b62000747836200070a565b6200075f620007568262000732565b848454620006a0565b825550505050565b600090565b6200077662000767565b620007838184846200073c565b505050565b5b81811015620007ab576200079f6000826200076c565b60018101905062000789565b5050565b601f821115620007fa57620007c4816200066e565b620007cf8462000683565b81016020851015620007df578190505b620007f7620007ee8562000683565b83018262000788565b50505b505050565b600082821c905092915050565b60006200081f60001984600802620007ff565b1980831691505092915050565b60006200083a83836200080c565b9150826002028217905092915050565b6200085582620005ff565b67ffffffffffffffff811115620008715762000870620003d0565b5b6200087d825462000639565b6200088a828285620007af565b600060209050601f831160018114620008c25760008415620008ad578287015190505b620008b985826200082c565b86555062000929565b601f198416620008d2866200066e565b60005b82811015620008fc57848901518255600182019150602085019450602081019050620008d5565b868310156200091c578489015162000918601f8916826200080c565b8355505b6001600288020188555050505b505050505050565b6000819050919050565b620009468162000931565b82525050565b6200095781620006f6565b82525050565b620009688162000554565b82525050565b600060a0820190506200098560008301886200093b565b6200099460208301876200093b565b620009a360408301866200093b565b620009b260608301856200094c565b620009c160808301846200095d565b9695505050505050565b600082825260208201905092915050565b6000620009e982620005ff565b620009f58185620009cb565b935062000a078185602086016200048a565b62000a1281620003bf565b840191505092915050565b6000602082019050818103600083015262000a398184620009dc565b905092915050565b600081519050919050565b6000819050602082019050919050565b600062000a6a825162000931565b80915050919050565b600062000a808262000a41565b8262000a8c8462000a4c565b905062000a998162000a5c565b9250602082101562000adc5762000ad77fffffffffffffffffffffffffffffffffffffffffffffffffffffffffffffffff8360200360080262000693565b831692505b5050919050565b60805160a05160c05160e051610100516101205161014051611f8162000b3e60003960006104940152600061046001526000610cf901526000610cd8015260006108f50152600061094b015260006109740152611f816000f3fe608060405234801561001057600080fd5b50600436106100935760003560e01c80637ecebe00116100665780637ecebe00146100fa57806384b0196e1461012a5780638da5cb5b1461014e578063e9deb8ec1461016c578063f2fde38b1461018857610093565b806306fdde03146100985780633644e515146100b65780636b9d159d146100d4578063715018a6146100f0575b600080fd5b6100a06101a4565b6040516100ad9190611144565b60405180910390f35b6100be610236565b6040516100cb919061117f565b60405180910390f35b6100ee60048036038101906100e99190611298565b610245565b005b6100f86103e9565b005b610114600480360381019061010f9190611325565b6103fd565b6040516101219190611361565b60405180910390f35b61013261044d565b6040516101459796959493929190611484565b60405180910390f35b61015661054f565b6040516101639190611508565b60405180910390f35b61018660048036038101906101819190611523565b610578565b005b6101a2600480360381019061019d9190611325565b610820565b005b6060600480546101b3906115f4565b80601f01602080910402602001604051908101604052809291908181526020018280546101df906115f4565b801561022c5780601f106102015761010080835404028352916020019161022c565b820191906000526020600020905b81548152906001019060200180831161020f57829003601f168201915b5050505050905090565b60006102406108f1565b905090565b60003390508673ffffffffffffffffffffffffffffffffffffffff1663d505accf823089898989896040518863ffffffff1660e01b815260040161028f9796959493929190611634565b600060405180830381600087803b1580156102a957600080fd5b505af11580156102bd573d6000803e3d6000fd5b505050508673ffffffffffffffffffffffffffffffffffffffff166323b872dd8230896040518463ffffffff1660e01b81526004016102fe939291906116a3565b6020604051808303816000875af115801561031d573d6000803e3d6000fd5b505050506040513d601f19601f820116820180604052508101906103419190611712565b508673ffffffffffffffffffffffffffffffffffffffff16600360009054906101000a900473ffffffffffffffffffffffffffffffffffffffff1673ffffffffffffffffffffffffffffffffffffffff168273ffffffffffffffffffffffffffffffffffffffff167f7cfff908a4b583f36430b25d75964c458d8ede8a99bd61be750e97ee1b2f3a96896040516103d89190611361565b60405180910390a450505050505050565b6103f16109a8565b6103fb6000610a26565b565b6000610446600560008473ffffffffffffffffffffffffffffffffffffffff1673ffffffffffffffffffffffffffffffffffffffff168152602001908152602001600020610aea565b9050919050565b60006060806000806000606061048d60017f0000000000000000000000000000000000000000000000000000000000000000610af890919063ffffffff16565b6104c160027f0000000000000000000000000000000000000000000000000000000000000000610af890919063ffffffff16565b46306000801b600067ffffffffffffffff8111156104e2576104e161173f565b5b6040519080825280602002602001820160405280156105105781602001602082028036833780820191505090505b507f0f00000000000000000000000000000000000000000000000000000000000000959493929190965096509650965096509650965090919293949596565b60008060009054906101000a900473ffffffffffffffffffffffffffffffffffffffff16905090565b6000339050600061058882610ba8565b9050864211156105cd576040517f08c379a00000000000000000000000000000000000000000000000000000000081526004016105c4906117ba565b60405180910390fd5b60007fbdb8db57b2e31447bff640fcc287b05a31c3da45ca140eaa5ba8f3b09ac99506600360009054906101000a900473ffffffffffffffffffffffffffffffffffffffff16848c8c868d60405160200161062e97969594939291906117da565b604051602081830303815290604052805190602001209050600061065182610c06565b90506000610661828a8a8a610c20565b9050600360009054906101000a900473ffffffffffffffffffffffffffffffffffffffff1673ffffffffffffffffffffffffffffffffffffffff168173ffffffffffffffffffffffffffffffffffffffff16146106f3576040517f08c379a00000000000000000000000000000000000000000000000000000000081526004016106ea90611895565b60405180910390fd5b8b73ffffffffffffffffffffffffffffffffffffffff1663a9059cbb878d6040518363ffffffff1660e01b815260040161072e9291906118b5565b6020604051808303816000875af115801561074d573d6000803e3d6000fd5b505050506040513d601f19601f820116820180604052508101906107719190611712565b508b73ffffffffffffffffffffffffffffffffffffffff168573ffffffffffffffffffffffffffffffffffffffff16600360009054906101000a900473ffffffffffffffffffffffffffffffffffffffff1673ffffffffffffffffffffffffffffffffffffffff167ffbde797d201c681b91056529119e0b02407c7bb96a4a2c75c01fc9667232c8db8e8860405161080a9291906118de565b60405180910390a4505050505050505050505050565b6108286109a8565b600073ffffffffffffffffffffffffffffffffffffffff168173ffffffffffffffffffffffffffffffffffffffff1603610897576040517f08c379a000000000000000000000000000000000000000000000000000000000815260040161088e90611979565b60405180910390fd5b6108a081610a26565b50565b60006020835110156108bf576108b883610c4b565b90506108e1565b826108c9836108e7565b60000190816108d89190611b45565b5060ff60001b90505b92915050565b6000819050919050565b60007f000000000000000000000000000000000000000000000000000000000000000073ffffffffffffffffffffffffffffffffffffffff163073ffffffffffffffffffffffffffffffffffffffff1614801561096d57507f000000000000000000000000000000000000000000000000000000000000000046145b1561099a577f000000000000000000000000000000000000000000000000000000000000000090506109a5565b6109a2610cb3565b90505b90565b6109b0610d49565b73ffffffffffffffffffffffffffffffffffffffff166109ce61054f565b73ffffffffffffffffffffffffffffffffffffffff1614610a24576040517f08c379a0000000000000000000000000000000000000000000000000000000008152600401610a1b90611c63565b60405180910390fd5b565b60008060009054906101000a900473ffffffffffffffffffffffffffffffffffffffff169050816000806101000a81548173ffffffffffffffffffffffffffffffffffffffff021916908373ffffffffffffffffffffffffffffffffffffffff1602179055508173ffffffffffffffffffffffffffffffffffffffff168173ffffffffffffffffffffffffffffffffffffffff167f8be0079c531659141344cd1fd0a4f28419497f9722a3daafe3b4186f6b6457e060405160405180910390a35050565b600081600001549050919050565b606060ff60001b8314610b1557610b0e83610d51565b9050610ba2565b818054610b21906115f4565b80601f0160208091040260200160405190810160405280929190818152602001828054610b4d906115f4565b8015610b9a5780601f10610b6f57610100808354040283529160200191610b9a565b820191906000526020600020905b815481529060010190602001808311610b7d57829003601f168201915b505050505090505b92915050565b600080600560008473ffffffffffffffffffffffffffffffffffffffff1673ffffffffffffffffffffffffffffffffffffffff1681526020019081526020016000209050610bf581610aea565b9150610c0081610dc5565b50919050565b6000610c19610c136108f1565b83610ddb565b9050919050565b6000806000610c3187878787610e1c565b91509150610c3e81610efe565b8192505050949350505050565b600080829050601f81511115610c9857826040517f305a27a9000000000000000000000000000000000000000000000000000000008152600401610c8f9190611144565b60405180910390fd5b805181610ca490611cb3565b60001c1760001b915050919050565b60007f8b73c3c69bb8fe3d512ecc4cf759cc79239f7b179b0ffacaa9a75d522b39400f7f00000000000000000000000000000000000000000000000000000000000000007f00000000000000000000000000000000000000000000000000000000000000004630604051602001610d2e959493929190611d1a565b60405160208183030381529060405280519060200120905090565b600033905090565b60606000610d5e83611064565b90506000602067ffffffffffffffff811115610d7d57610d7c61173f565b5b6040519080825280601f01601f191660200182016040528015610daf5781602001600182028036833780820191505090505b5090508181528360208201528092505050919050565b6001816000016000828254019250508190555050565b60006040517f190100000000000000000000000000000000000000000000000000000000000081528360028201528260228201526042812091505092915050565b6000807f7fffffffffffffffffffffffffffffff5d576e7357a4501ddfe92f46681b20a08360001c1115610e57576000600391509150610ef5565b600060018787878760405160008152602001604052604051610e7c9493929190611d6d565b6020604051602081039080840390855afa158015610e9e573d6000803e3d6000fd5b505050602060405103519050600073ffffffffffffffffffffffffffffffffffffffff168173ffffffffffffffffffffffffffffffffffffffff1603610eec57600060019250925050610ef5565b80600092509250505b94509492505050565b60006004811115610f1257610f11611db2565b5b816004811115610f2557610f24611db2565b5b03156110615760016004811115610f3f57610f3e611db2565b5b816004811115610f5257610f51611db2565b5b03610f92576040517f08c379a0000000000000000000000000000000000000000000000000000000008152600401610f8990611e2d565b60405180910390fd5b60026004811115610fa657610fa5611db2565b5b816004811115610fb957610fb8611db2565b5b03610ff9576040517f08c379a0000000000000000000000000000000000000000000000000000000008152600401610ff090611e99565b60405180910390fd5b6003600481111561100d5761100c611db2565b5b8160048111156110205761101f611db2565b5b03611060576040517f08c379a000000000000000000000000000000000000000000000000000000000815260040161105790611f2b565b60405180910390fd5b5b50565b60008060ff8360001c169050601f8111156110ab576040517fb3512b0c00000000000000000000000000000000000000000000000000000000815260040160405180910390fd5b80915050919050565b600081519050919050565b600082825260208201905092915050565b60005b838110156110ee5780820151818401526020810190506110d3565b60008484015250505050565b6000601f19601f8301169050919050565b6000611116826110b4565b61112081856110bf565b93506111308185602086016110d0565b611139816110fa565b840191505092915050565b6000602082019050818103600083015261115e818461110b565b905092915050565b6000819050919050565b61117981611166565b82525050565b60006020820190506111946000830184611170565b92915050565b600080fd5b600073ffffffffffffffffffffffffffffffffffffffff82169050919050565b60006111ca8261119f565b9050919050565b6111da816111bf565b81146111e557600080fd5b50565b6000813590506111f7816111d1565b92915050565b6000819050919050565b611210816111fd565b811461121b57600080fd5b50565b60008135905061122d81611207565b92915050565b600060ff82169050919050565b61124981611233565b811461125457600080fd5b50565b60008135905061126681611240565b92915050565b61127581611166565b811461128057600080fd5b50565b6000813590506112928161126c565b92915050565b60008060008060008060c087890312156112b5576112b461119a565b5b60006112c389828a016111e8565b96505060206112d489828a0161121e565b95505060406112e589828a0161121e565b94505060606112f689828a01611257565b935050608061130789828a01611283565b92505060a061131889828a01611283565b9150509295509295509295565b60006020828403121561133b5761133a61119a565b5b6000611349848285016111e8565b91505092915050565b61135b816111fd565b82525050565b60006020820190506113766000830184611352565b92915050565b60007fff0000000000000000000000000000000000000000000000000000000000000082169050919050565b6113b18161137c565b82525050565b6113c0816111bf565b82525050565b600081519050919050565b600082825260208201905092915050565b6000819050602082019050919050565b6113fb816111fd565b82525050565b600061140d83836113f2565b60208301905092915050565b6000602082019050919050565b6000611431826113c6565b61143b81856113d1565b9350611446836113e2565b8060005b8381101561147757815161145e8882611401565b975061146983611419565b92505060018101905061144a565b5085935050505092915050565b600060e082019050611499600083018a6113a8565b81810360208301526114ab818961110b565b905081810360408301526114bf818861110b565b90506114ce6060830187611352565b6114db60808301866113b7565b6114e860a0830185611170565b81810360c08301526114fa8184611426565b905098975050505050505050565b600060208201905061151d60008301846113b7565b92915050565b600080600080600080600060e0888a0312156115425761154161119a565b5b60006115508a828b016111e8565b97505060206115618a828b0161121e565b96505060406115728a828b0161121e565b95505060606115838a828b01611257565b94505060806115948a828b01611283565b93505060a06115a58a828b01611283565b92505060c06115b68a828b016111e8565b91505092959891949750929550565b7f4e487b7100000000000000000000000000000000000000000000000000000000600052602260045260246000fd5b6000600282049050600182168061160c57607f821691505b60208210810361161f5761161e6115c5565b5b50919050565b61162e81611233565b82525050565b600060e082019050611649600083018a6113b7565b61165660208301896113b7565b6116636040830188611352565b6116706060830187611352565b61167d6080830186611625565b61168a60a0830185611170565b61169760c0830184611170565b98975050505050505050565b60006060820190506116b860008301866113b7565b6116c560208301856113b7565b6116d26040830184611352565b949350505050565b60008115159050919050565b6116ef816116da565b81146116fa57600080fd5b50565b60008151905061170c816116e6565b92915050565b6000602082840312156117285761172761119a565b5b6000611736848285016116fd565b91505092915050565b7f4e487b7100000000000000000000000000000000000000000000000000000000600052604160045260246000fd5b7f45524332305065726d69743a206578706972656420646561646c696e65000000600082015250565b60006117a4601d836110bf565b91506117af8261176e565b602082019050919050565b600060208201905081810360008301526117d381611797565b9050919050565b600060e0820190506117ef600083018a611170565b6117fc60208301896113b7565b61180960408301886113b7565b61181660608301876113b7565b6118236080830186611352565b61183060a0830185611352565b61183d60c0830184611352565b98975050505050505050565b7f45524332305065726d69743a20696e76616c6964207369676e61747572650000600082015250565b600061187f601e836110bf565b915061188a82611849565b602082019050919050565b600060208201905081810360008301526118ae81611872565b9050919050565b60006040820190506118ca60008301856113b7565b6118d76020830184611352565b9392505050565b60006040820190506118f36000830185611352565b6119006020830184611352565b9392505050565b7f4f776e61626c653a206e6577206f776e657220697320746865207a65726f206160008201527f6464726573730000000000000000000000000000000000000000000000000000602082015250565b60006119636026836110bf565b915061196e82611907565b604082019050919050565b6000602082019050818103600083015261199281611956565b9050919050565b60008190508160005260206000209050919050565b60006020601f8301049050919050565b600082821b905092915050565b6000600883026119fb7fffffffffffffffffffffffffffffffffffffffffffffffffffffffffffffffff826119be565b611a0586836119be565b95508019841693508086168417925050509392505050565b6000819050919050565b6000611a42611a3d611a38846111fd565b611a1d565b6111fd565b9050919050565b6000819050919050565b611a5c83611a27565b611a70611a6882611a49565b8484546119cb565b825550505050565b600090565b611a85611a78565b611a90818484611a53565b505050565b5b81811015611ab457611aa9600082611a7d565b600181019050611a96565b5050565b601f821115611af957611aca81611999565b611ad3846119ae565b81016020851015611ae2578190505b611af6611aee856119ae565b830182611a95565b50505b505050565b600082821c905092915050565b6000611b1c60001984600802611afe565b1980831691505092915050565b6000611b358383611b0b565b9150826002028217905092915050565b611b4e826110b4565b67ffffffffffffffff811115611b6757611b6661173f565b5b611b7182546115f4565b611b7c828285611ab8565b600060209050601f831160018114611baf5760008415611b9d578287015190505b611ba78582611b29565b865550611c0f565b601f198416611bbd86611999565b60005b82811015611be557848901518255600182019150602085019450602081019050611bc0565b86831015611c025784890151611bfe601f891682611b0b565b8355505b6001600288020188555050505b505050505050565b7f4f776e61626c653a2063616c6c6572206973206e6f7420746865206f776e6572600082015250565b6000611c4d6020836110bf565b9150611c5882611c17565b602082019050919050565b60006020820190508181036000830152611c7c81611c40565b9050919050565b600081519050919050565b6000819050602082019050919050565b6000611caa8251611166565b80915050919050565b6000611cbe82611c83565b82611cc884611c8e565b9050611cd381611c9e565b92506020821015611d1357611d0e7fffffffffffffffffffffffffffffffffffffffffffffffffffffffffffffffff836020036008026119be565b831692505b5050919050565b600060a082019050611d2f6000830188611170565b611d3c6020830187611170565b611d496040830186611170565b611d566060830185611352565b611d6360808301846113b7565b9695505050505050565b6000608082019050611d826000830187611170565b611d8f6020830186611625565b611d9c6040830185611170565b611da96060830184611170565b95945050505050565b7f4e487b7100000000000000000000000000000000000000000000000000000000600052602160045260246000fd5b7f45434453413a20696e76616c6964207369676e61747572650000000000000000600082015250565b6000611e176018836110bf565b9150611e2282611de1565b602082019050919050565b60006020820190508181036000830152611e4681611e0a565b9050919050565b7f45434453413a20696e76616c6964207369676e6174757265206c656e67746800600082015250565b6000611e83601f836110bf565b9150611e8e82611e4d565b602082019050919050565b60006020820190508181036000830152611eb281611e76565b9050919050565b7f45434453413a20696e76616c6964207369676e6174757265202773272076616c60008201527f7565000000000000000000000000000000000000000000000000000000000000602082015250565b6000611f156022836110bf565b9150611f2082611eb9565b604082019050919050565b60006020820190508181036000830152611f4481611f08565b905091905056fea2646970667358221220d1cff8d7c6b28884d59e875a3e854f0d4159df82e044a175fe9ffbd65eefc76864736f6c63430008120033",
  "linkReferences": {},
  "deployedLinkReferences": {}
}