{
  "_format": "hh-sol-artifact-1",
  "contractName": "Treasury",
  "sourceName": "contracts/Treasury.sol",
  "abi": [
    {
      "inputs": [],
      "stateMutability": "nonpayable",
      "type": "constructor"
    },
    {
      "anonymous": false,
      "inputs": [
        {
          "indexed": true,
          "internalType": "address",
          "name": "tokenAddress",
          "type": "address"
        },
        {
          "indexed": true,
          "internalType": "address",
          "name": "userAddress",
          "type": "address"
        },
        {
          "indexed": false,
          "internalType": "uint256",
          "name": "amount",
          "type": "uint256"
        }
      ],
      "name": "Deposit",
      "type": "event"
    },
    {
      "anonymous": false,
      "inputs": [
        {
          "indexed": true,
          "internalType": "address",
          "name": "previousOwner",
          "type": "address"
        },
        {
          "indexed": true,
          "internalType": "address",
          "name": "newOwner",
          "type": "address"
        }
      ],
      "name": "OwnershipTransferred",
      "type": "event"
    },
    {
      "anonymous": false,
      "inputs": [
        {
          "components": [
            {
              "internalType": "address",
              "name": "tokenAddress",
              "type": "address"
            },
            {
              "internalType": "address",
              "name": "userAddress",
              "type": "address"
            },
            {
              "internalType": "uint256",
              "name": "value",
              "type": "uint256"
            }
          ],
          "indexed": true,
          "internalType": "struct Treasury.BalanceUpdate[]",
          "name": "updates",
          "type": "tuple[]"
        }
      ],
      "name": "SetBalances",
      "type": "event"
    },
    {
      "anonymous": false,
      "inputs": [
        {
          "indexed": true,
          "internalType": "address",
          "name": "tokenAddress",
          "type": "address"
        },
        {
          "indexed": true,
          "internalType": "address",
          "name": "userAddress",
          "type": "address"
        },
        {
          "indexed": false,
          "internalType": "uint256",
          "name": "amount",
          "type": "uint256"
        }
      ],
      "name": "Withdraw",
      "type": "event"
    },
    {
      "inputs": [
        {
          "internalType": "address",
          "name": "tokenAddress",
          "type": "address"
        },
        {
          "internalType": "address",
          "name": "userAddress",
          "type": "address"
        }
      ],
      "name": "balanceOf",
      "outputs": [
        {
          "internalType": "uint256",
          "name": "",
          "type": "uint256"
        }
      ],
      "stateMutability": "view",
      "type": "function"
    },
    {
      "inputs": [
        {
          "internalType": "address",
          "name": "tokenAddress",
          "type": "address"
        },
        {
          "internalType": "uint256",
          "name": "amount",
          "type": "uint256"
        }
      ],
      "name": "deposit",
      "outputs": [],
      "stateMutability": "nonpayable",
      "type": "function"
    },
    {
      "inputs": [
        {
          "internalType": "address",
          "name": "tokenAddress",
          "type": "address"
        },
        {
          "internalType": "uint256",
          "name": "amount",
          "type": "uint256"
        },
        {
          "internalType": "uint256",
          "name": "deadline",
          "type": "uint256"
        },
        {
          "internalType": "uint8",
          "name": "v",
          "type": "uint8"
        },
        {
          "internalType": "bytes32",
          "name": "r",
          "type": "bytes32"
        },
        {
          "internalType": "bytes32",
          "name": "s",
          "type": "bytes32"
        }
      ],
      "name": "depositPermit",
      "outputs": [],
      "stateMutability": "nonpayable",
      "type": "function"
    },
    {
      "inputs": [],
      "name": "owner",
      "outputs": [
        {
          "internalType": "address",
          "name": "",
          "type": "address"
        }
      ],
      "stateMutability": "view",
      "type": "function"
    },
    {
      "inputs": [],
      "name": "renounceOwnership",
      "outputs": [],
      "stateMutability": "nonpayable",
      "type": "function"
    },
    {
      "inputs": [
        {
          "components": [
            {
              "internalType": "address",
              "name": "tokenAddress",
              "type": "address"
            },
            {
              "internalType": "address",
              "name": "userAddress",
              "type": "address"
            },
            {
              "internalType": "uint256",
              "name": "value",
              "type": "uint256"
            }
          ],
          "internalType": "struct Treasury.BalanceUpdate[]",
          "name": "updates",
          "type": "tuple[]"
        }
      ],
      "name": "setBalances",
      "outputs": [],
      "stateMutability": "nonpayable",
      "type": "function"
    },
    {
      "inputs": [
        {
          "internalType": "address",
          "name": "newOwner",
          "type": "address"
        }
      ],
      "name": "transferOwnership",
      "outputs": [],
      "stateMutability": "nonpayable",
      "type": "function"
    },
    {
      "inputs": [
        {
          "internalType": "address",
          "name": "tokenAddress",
          "type": "address"
        },
        {
          "internalType": "address",
          "name": "userAddress",
          "type": "address"
        },
        {
          "internalType": "uint256",
          "name": "amount",
          "type": "uint256"
        }
      ],
      "name": "withdraw",
      "outputs": [],
      "stateMutability": "nonpayable",
      "type": "function"
    }
  ],
  "bytecode": "0x608060405234801561001057600080fd5b5061002d61002261003260201b60201c565b61003a60201b60201c565b6100fe565b600033905090565b60008060009054906101000a900473ffffffffffffffffffffffffffffffffffffffff169050816000806101000a81548173ffffffffffffffffffffffffffffffffffffffff021916908373ffffffffffffffffffffffffffffffffffffffff1602179055508173ffffffffffffffffffffffffffffffffffffffff168173ffffffffffffffffffffffffffffffffffffffff167f8be0079c531659141344cd1fd0a4f28419497f9722a3daafe3b4186f6b6457e060405160405180910390a35050565b6114a58061010d6000396000f3fe608060405234801561001057600080fd5b50600436106100885760003560e01c8063caa8f46a1161005b578063caa8f46a146100ed578063d9caed1214610109578063f2fde38b14610125578063f7888aec1461014157610088565b806347e7ef241461008d5780636b9d159d146100a9578063715018a6146100c55780638da5cb5b146100cf575b600080fd5b6100a760048036038101906100a29190610b58565b610171565b005b6100c360048036038101906100be9190610c07565b6102f4565b005b6100cd6104f2565b005b6100d7610506565b6040516100e49190610ca3565b60405180910390f35b61010760048036038101906101029190610e80565b61052f565b005b610123600480360381019061011e9190610ec9565b6105bf565b005b61013f600480360381019061013a9190610f1c565b6107cc565b005b61015b60048036038101906101569190610f49565b61084f565b6040516101689190610f98565b60405180910390f35b60003390508273ffffffffffffffffffffffffffffffffffffffff166323b872dd8230856040518463ffffffff1660e01b81526004016101b393929190610fb3565b6020604051808303816000875af11580156101d2573d6000803e3d6000fd5b505050506040513d601f19601f820116820180604052508101906101f69190611022565b5081600160008573ffffffffffffffffffffffffffffffffffffffff1673ffffffffffffffffffffffffffffffffffffffff16815260200190815260200160002060008373ffffffffffffffffffffffffffffffffffffffff1673ffffffffffffffffffffffffffffffffffffffff1681526020019081526020016000206000828254610283919061107e565b925050819055508073ffffffffffffffffffffffffffffffffffffffff168373ffffffffffffffffffffffffffffffffffffffff167f5548c837ab068cf56a2c2479df0882a4922fd203edb7517321831d95078c5f62846040516102e79190610f98565b60405180910390a3505050565b60003390508673ffffffffffffffffffffffffffffffffffffffff1663d505accf823089898989896040518863ffffffff1660e01b815260040161033e97969594939291906110d0565b600060405180830381600087803b15801561035857600080fd5b505af115801561036c573d6000803e3d6000fd5b505050508673ffffffffffffffffffffffffffffffffffffffff166323b872dd8230896040518463ffffffff1660e01b81526004016103ad93929190610fb3565b6020604051808303816000875af11580156103cc573d6000803e3d6000fd5b505050506040513d601f19601f820116820180604052508101906103f09190611022565b5085600160008973ffffffffffffffffffffffffffffffffffffffff1673ffffffffffffffffffffffffffffffffffffffff16815260200190815260200160002060008373ffffffffffffffffffffffffffffffffffffffff1673ffffffffffffffffffffffffffffffffffffffff168152602001908152602001600020600082825461047d919061107e565b925050819055508073ffffffffffffffffffffffffffffffffffffffff168773ffffffffffffffffffffffffffffffffffffffff167f5548c837ab068cf56a2c2479df0882a4922fd203edb7517321831d95078c5f62886040516104e19190610f98565b60405180910390a350505050505050565b6104fa6108d6565b6105046000610954565b565b60008060009054906101000a900473ffffffffffffffffffffffffffffffffffffffff16905090565b6105376108d6565b60005b8151811015610579576105668282815181106105595761055861113f565b5b6020026020010151610a18565b80806105719061116e565b91505061053a565b508060405161058891906112ec565b60405180910390207f71252d50253451c2828e7efbd94744ce3c1e04c0b918dce3638030dbc4d7fc1560405160405180910390a250565b6105c76108d6565b80600160008573ffffffffffffffffffffffffffffffffffffffff1673ffffffffffffffffffffffffffffffffffffffff16815260200190815260200160002060008473ffffffffffffffffffffffffffffffffffffffff1673ffffffffffffffffffffffffffffffffffffffff16815260200190815260200160002054101561065057600080fd5b80600160008573ffffffffffffffffffffffffffffffffffffffff1673ffffffffffffffffffffffffffffffffffffffff16815260200190815260200160002060008473ffffffffffffffffffffffffffffffffffffffff1673ffffffffffffffffffffffffffffffffffffffff16815260200190815260200160002060008282546106dc9190611303565b925050819055508273ffffffffffffffffffffffffffffffffffffffff1663a9059cbb83836040518363ffffffff1660e01b815260040161071e929190611337565b6020604051808303816000875af115801561073d573d6000803e3d6000fd5b505050506040513d601f19601f820116820180604052508101906107619190611022565b508173ffffffffffffffffffffffffffffffffffffffff168373ffffffffffffffffffffffffffffffffffffffff167f9b1bfa7fa9ee420a16e124f794c35ac9f90472acc99140eb2f6447c714cad8eb836040516107bf9190610f98565b60405180910390a3505050565b6107d46108d6565b600073ffffffffffffffffffffffffffffffffffffffff168173ffffffffffffffffffffffffffffffffffffffff1603610843576040517f08c379a000000000000000000000000000000000000000000000000000000000815260040161083a906113e3565b60405180910390fd5b61084c81610954565b50565b6000600160008473ffffffffffffffffffffffffffffffffffffffff1673ffffffffffffffffffffffffffffffffffffffff16815260200190815260200160002060008373ffffffffffffffffffffffffffffffffffffffff1673ffffffffffffffffffffffffffffffffffffffff16815260200190815260200160002054905092915050565b6108de610aa8565b73ffffffffffffffffffffffffffffffffffffffff166108fc610506565b73ffffffffffffffffffffffffffffffffffffffff1614610952576040517f08c379a00000000000000000000000000000000000000000000000000000000081526004016109499061144f565b60405180910390fd5b565b60008060009054906101000a900473ffffffffffffffffffffffffffffffffffffffff169050816000806101000a81548173ffffffffffffffffffffffffffffffffffffffff021916908373ffffffffffffffffffffffffffffffffffffffff1602179055508173ffffffffffffffffffffffffffffffffffffffff168173ffffffffffffffffffffffffffffffffffffffff167f8be0079c531659141344cd1fd0a4f28419497f9722a3daafe3b4186f6b6457e060405160405180910390a35050565b806040015160016000836000015173ffffffffffffffffffffffffffffffffffffffff1673ffffffffffffffffffffffffffffffffffffffff1681526020019081526020016000206000836020015173ffffffffffffffffffffffffffffffffffffffff1673ffffffffffffffffffffffffffffffffffffffff1681526020019081526020016000208190555050565b600033905090565b6000604051905090565b600080fd5b600080fd5b600073ffffffffffffffffffffffffffffffffffffffff82169050919050565b6000610aef82610ac4565b9050919050565b610aff81610ae4565b8114610b0a57600080fd5b50565b600081359050610b1c81610af6565b92915050565b6000819050919050565b610b3581610b22565b8114610b4057600080fd5b50565b600081359050610b5281610b2c565b92915050565b60008060408385031215610b6f57610b6e610aba565b5b6000610b7d85828601610b0d565b9250506020610b8e85828601610b43565b9150509250929050565b600060ff82169050919050565b610bae81610b98565b8114610bb957600080fd5b50565b600081359050610bcb81610ba5565b92915050565b6000819050919050565b610be481610bd1565b8114610bef57600080fd5b50565b600081359050610c0181610bdb565b92915050565b60008060008060008060c08789031215610c2457610c23610aba565b5b6000610c3289828a01610b0d565b9650506020610c4389828a01610b43565b9550506040610c5489828a01610b43565b9450506060610c6589828a01610bbc565b9350506080610c7689828a01610bf2565b92505060a0610c8789828a01610bf2565b9150509295509295509295565b610c9d81610ae4565b82525050565b6000602082019050610cb86000830184610c94565b92915050565b600080fd5b6000601f19601f8301169050919050565b7f4e487b7100000000000000000000000000000000000000000000000000000000600052604160045260246000fd5b610d0c82610cc3565b810181811067ffffffffffffffff82111715610d2b57610d2a610cd4565b5b80604052505050565b6000610d3e610ab0565b9050610d4a8282610d03565b919050565b600067ffffffffffffffff821115610d6a57610d69610cd4565b5b602082029050602081019050919050565b600080fd5b600080fd5b600060608284031215610d9b57610d9a610d80565b5b610da56060610d34565b90506000610db584828501610b0d565b6000830152506020610dc984828501610b0d565b6020830152506040610ddd84828501610b43565b60408301525092915050565b6000610dfc610df784610d4f565b610d34565b90508083825260208201905060608402830185811115610e1f57610e1e610d7b565b5b835b81811015610e485780610e348882610d85565b845260208401935050606081019050610e21565b5050509392505050565b600082601f830112610e6757610e66610cbe565b5b8135610e77848260208601610de9565b91505092915050565b600060208284031215610e9657610e95610aba565b5b600082013567ffffffffffffffff811115610eb457610eb3610abf565b5b610ec084828501610e52565b91505092915050565b600080600060608486031215610ee257610ee1610aba565b5b6000610ef086828701610b0d565b9350506020610f0186828701610b0d565b9250506040610f1286828701610b43565b9150509250925092565b600060208284031215610f3257610f31610aba565b5b6000610f4084828501610b0d565b91505092915050565b60008060408385031215610f6057610f5f610aba565b5b6000610f6e85828601610b0d565b9250506020610f7f85828601610b0d565b9150509250929050565b610f9281610b22565b82525050565b6000602082019050610fad6000830184610f89565b92915050565b6000606082019050610fc86000830186610c94565b610fd56020830185610c94565b610fe26040830184610f89565b949350505050565b60008115159050919050565b610fff81610fea565b811461100a57600080fd5b50565b60008151905061101c81610ff6565b92915050565b60006020828403121561103857611037610aba565b5b60006110468482850161100d565b91505092915050565b7f4e487b7100000000000000000000000000000000000000000000000000000000600052601160045260246000fd5b600061108982610b22565b915061109483610b22565b92508282019050808211156110ac576110ab61104f565b5b92915050565b6110bb81610b98565b82525050565b6110ca81610bd1565b82525050565b600060e0820190506110e5600083018a610c94565b6110f26020830189610c94565b6110ff6040830188610f89565b61110c6060830187610f89565b61111960808301866110b2565b61112660a08301856110c1565b61113360c08301846110c1565b98975050505050505050565b7f4e487b7100000000000000000000000000000000000000000000000000000000600052603260045260246000fd5b600061117982610b22565b91507fffffffffffffffffffffffffffffffffffffffffffffffffffffffffffffffff82036111ab576111aa61104f565b5b600182019050919050565b600081519050919050565b600081905092915050565b6000819050602082019050919050565b6111e581610ae4565b82525050565b60006111f783836111dc565b60208301905092915050565b61120c81610b22565b82525050565b600061121e8383611203565b60208301905092915050565b60008201600082015161123d84826111eb565b935050602082015161124f84826111eb565b93505060408201516112618482611212565b935050505050565b6000611275838361122a565b60608301905092915050565b6000602082019050919050565b6000611299826111b6565b6112a381856111c1565b93506112ae836111cc565b8060005b838110156112df5781516112c68882611269565b97506112d183611281565b9250506001810190506112b2565b5085935050505092915050565b60006112f8828461128e565b915081905092915050565b600061130e82610b22565b915061131983610b22565b92508282039050818111156113315761133061104f565b5b92915050565b600060408201905061134c6000830185610c94565b6113596020830184610f89565b9392505050565b600082825260208201905092915050565b7f4f776e61626c653a206e6577206f776e657220697320746865207a65726f206160008201527f6464726573730000000000000000000000000000000000000000000000000000602082015250565b60006113cd602683611360565b91506113d882611371565b604082019050919050565b600060208201905081810360008301526113fc816113c0565b9050919050565b7f4f776e61626c653a2063616c6c6572206973206e6f7420746865206f776e6572600082015250565b6000611439602083611360565b915061144482611403565b602082019050919050565b600060208201905081810360008301526114688161142c565b905091905056fea2646970667358221220dcdef4e027b82a53d10fda848fe42e45586a6fd0d13e1153643e7830b33c52df64736f6c63430008120033",
  "linkReferences": {},
  "deployedLinkReferences": {}
}