{
  "_format": "hh-sol-artifact-1",
  "contractName": "Treasury",
  "sourceName": "contracts/Treasury.sol",
  "abi": [
    {
      "inputs": [
        {
          "internalType": "string",
          "name": "_name",
          "type": "string"
        },
        {
          "internalType": "address",
          "name": "_publicKey",
          "type": "address"
        }
      ],
      "stateMutability": "nonpayable",
      "type": "constructor"
    },
    {
      "inputs": [],
      "name": "InvalidShortString",
      "type": "error"
    },
    {
      "inputs": [
        {
          "internalType": "string",
          "name": "str",
          "type": "string"
        }
      ],
      "name": "StringTooLong",
      "type": "error"
    },
    {
      "anonymous": false,
      "inputs": [
        {
          "indexed": true,
          "internalType": "address",
          "name": "tokenAddress",
          "type": "address"
        },
        {
          "indexed": true,
          "internalType": "address",
          "name": "userAddress",
          "type": "address"
        },
        {
          "indexed": false,
          "internalType": "uint256",
          "name": "amount",
          "type": "uint256"
        }
      ],
      "name": "Deposit",
      "type": "event"
    },
    {
      "anonymous": false,
      "inputs": [],
      "name": "EIP712DomainChanged",
      "type": "event"
    },
    {
      "anonymous": false,
      "inputs": [
        {
          "indexed": true,
          "internalType": "address",
          "name": "previousOwner",
          "type": "address"
        },
        {
          "indexed": true,
          "internalType": "address",
          "name": "newOwner",
          "type": "address"
        }
      ],
      "name": "OwnershipTransferred",
      "type": "event"
    },
    {
      "anonymous": false,
      "inputs": [
        {
          "indexed": true,
          "internalType": "address",
          "name": "tokenAddress",
          "type": "address"
        },
        {
          "indexed": true,
          "internalType": "address",
          "name": "userAddress",
          "type": "address"
        },
        {
          "indexed": false,
          "internalType": "uint256",
          "name": "amount",
          "type": "uint256"
        }
      ],
      "name": "Withdraw",
      "type": "event"
    },
    {
      "inputs": [],
      "name": "DOMAIN_SEPARATOR",
      "outputs": [
        {
          "internalType": "bytes32",
          "name": "",
          "type": "bytes32"
        }
      ],
      "stateMutability": "view",
      "type": "function"
    },
    {
      "inputs": [
        {
          "internalType": "address",
          "name": "tokenAddress",
          "type": "address"
        },
        {
          "internalType": "uint256",
          "name": "amount",
          "type": "uint256"
        },
        {
          "internalType": "uint256",
          "name": "deadline",
          "type": "uint256"
        },
        {
          "internalType": "uint8",
          "name": "v",
          "type": "uint8"
        },
        {
          "internalType": "bytes32",
          "name": "r",
          "type": "bytes32"
        },
        {
          "internalType": "bytes32",
          "name": "s",
          "type": "bytes32"
        }
      ],
      "name": "depositPermit",
      "outputs": [],
      "stateMutability": "nonpayable",
      "type": "function"
    },
    {
      "inputs": [],
      "name": "eip712Domain",
      "outputs": [
        {
          "internalType": "bytes1",
          "name": "fields",
          "type": "bytes1"
        },
        {
          "internalType": "string",
          "name": "name",
          "type": "string"
        },
        {
          "internalType": "string",
          "name": "version",
          "type": "string"
        },
        {
          "internalType": "uint256",
          "name": "chainId",
          "type": "uint256"
        },
        {
          "internalType": "address",
          "name": "verifyingContract",
          "type": "address"
        },
        {
          "internalType": "bytes32",
          "name": "salt",
          "type": "bytes32"
        },
        {
          "internalType": "uint256[]",
          "name": "extensions",
          "type": "uint256[]"
        }
      ],
      "stateMutability": "view",
      "type": "function"
    },
    {
      "inputs": [
        {
          "internalType": "address",
          "name": "owner",
          "type": "address"
        }
      ],
      "name": "nonces",
      "outputs": [
        {
          "internalType": "uint256",
          "name": "",
          "type": "uint256"
        }
      ],
      "stateMutability": "view",
      "type": "function"
    },
    {
      "inputs": [],
      "name": "owner",
      "outputs": [
        {
          "internalType": "address",
          "name": "",
          "type": "address"
        }
      ],
      "stateMutability": "view",
      "type": "function"
    },
    {
      "inputs": [],
      "name": "renounceOwnership",
      "outputs": [],
      "stateMutability": "nonpayable",
      "type": "function"
    },
    {
      "inputs": [
        {
          "internalType": "address",
          "name": "newOwner",
          "type": "address"
        }
      ],
      "name": "transferOwnership",
      "outputs": [],
      "stateMutability": "nonpayable",
      "type": "function"
    },
    {
      "inputs": [
        {
          "internalType": "address",
          "name": "tokenAddress",
          "type": "address"
        },
        {
          "internalType": "uint256",
          "name": "amount",
          "type": "uint256"
        },
        {
          "internalType": "uint256",
          "name": "deadline",
          "type": "uint256"
        },
        {
          "internalType": "uint8",
          "name": "v",
          "type": "uint8"
        },
        {
          "internalType": "bytes32",
          "name": "r",
          "type": "bytes32"
        },
        {
          "internalType": "bytes32",
          "name": "s",
          "type": "bytes32"
        }
      ],
      "name": "withdrawPermit",
      "outputs": [],
      "stateMutability": "nonpayable",
      "type": "function"
    }
  ],
  "bytecode": "0x6101606040523480156200001257600080fd5b506040516200288038038062002880833981810160405281019062000038919062000587565b816040518060400160405280600181526020017f31000000000000000000000000000000000000000000000000000000000000008152506200008f620000836200019260201b60201c565b6200019a60201b60201c565b620000aa6001836200025e60201b620006291790919060201c565b6101208181525050620000cd6002826200025e60201b620006291790919060201c565b6101408181525050818051906020012060e08181525050808051906020012061010081815250504660a081815250506200010c620002bb60201b60201c565b608081815250503073ffffffffffffffffffffffffffffffffffffffff1660c08173ffffffffffffffffffffffffffffffffffffffff1681525050505080600360006101000a81548173ffffffffffffffffffffffffffffffffffffffff021916908373ffffffffffffffffffffffffffffffffffffffff160217905550505062000ad1565b600033905090565b60008060009054906101000a900473ffffffffffffffffffffffffffffffffffffffff169050816000806101000a81548173ffffffffffffffffffffffffffffffffffffffff021916908373ffffffffffffffffffffffffffffffffffffffff1602179055508173ffffffffffffffffffffffffffffffffffffffff168173ffffffffffffffffffffffffffffffffffffffff167f8be0079c531659141344cd1fd0a4f28419497f9722a3daafe3b4186f6b6457e060405160405180910390a35050565b600060208351101562000284576200027c836200031860201b60201c565b9050620002b5565b826200029b836200038560201b6200066d1760201c565b6000019081620002ac919062000838565b5060ff60001b90505b92915050565b60007f8b73c3c69bb8fe3d512ecc4cf759cc79239f7b179b0ffacaa9a75d522b39400f60e051610100514630604051602001620002fd9594939291906200095c565b60405160208183030381529060405280519060200120905090565b600080829050601f815111156200036857826040517f305a27a90000000000000000000000000000000000000000000000000000000081526004016200035f919062000a0b565b60405180910390fd5b805181620003769062000a61565b60001c1760001b915050919050565b6000819050919050565b6000604051905090565b600080fd5b600080fd5b600080fd5b600080fd5b6000601f19601f8301169050919050565b7f4e487b7100000000000000000000000000000000000000000000000000000000600052604160045260246000fd5b620003f882620003ad565b810181811067ffffffffffffffff821117156200041a5762000419620003be565b5b80604052505050565b60006200042f6200038f565b90506200043d8282620003ed565b919050565b600067ffffffffffffffff82111562000460576200045f620003be565b5b6200046b82620003ad565b9050602081019050919050565b60005b83811015620004985780820151818401526020810190506200047b565b60008484015250505050565b6000620004bb620004b58462000442565b62000423565b905082815260208101848484011115620004da57620004d9620003a8565b5b620004e784828562000478565b509392505050565b600082601f830112620005075762000506620003a3565b5b815162000519848260208601620004a4565b91505092915050565b600073ffffffffffffffffffffffffffffffffffffffff82169050919050565b60006200054f8262000522565b9050919050565b620005618162000542565b81146200056d57600080fd5b50565b600081519050620005818162000556565b92915050565b60008060408385031215620005a157620005a062000399565b5b600083015167ffffffffffffffff811115620005c257620005c16200039e565b5b620005d085828601620004ef565b9250506020620005e38582860162000570565b9150509250929050565b600081519050919050565b7f4e487b7100000000000000000000000000000000000000000000000000000000600052602260045260246000fd5b600060028204905060018216806200064057607f821691505b602082108103620006565762000655620005f8565b5b50919050565b60008190508160005260206000209050919050565b60006020601f8301049050919050565b600082821b905092915050565b600060088302620006c07fffffffffffffffffffffffffffffffffffffffffffffffffffffffffffffffff8262000681565b620006cc868362000681565b95508019841693508086168417925050509392505050565b6000819050919050565b6000819050919050565b600062000719620007136200070d84620006e4565b620006ee565b620006e4565b9050919050565b6000819050919050565b6200073583620006f8565b6200074d620007448262000720565b8484546200068e565b825550505050565b600090565b6200076462000755565b620007718184846200072a565b505050565b5b8181101562000799576200078d6000826200075a565b60018101905062000777565b5050565b601f821115620007e857620007b2816200065c565b620007bd8462000671565b81016020851015620007cd578190505b620007e5620007dc8562000671565b83018262000776565b50505b505050565b600082821c905092915050565b60006200080d60001984600802620007ed565b1980831691505092915050565b6000620008288383620007fa565b9150826002028217905092915050565b6200084382620005ed565b67ffffffffffffffff8111156200085f576200085e620003be565b5b6200086b825462000627565b620008788282856200079d565b600060209050601f831160018114620008b057600084156200089b578287015190505b620008a785826200081a565b86555062000917565b601f198416620008c0866200065c565b60005b82811015620008ea57848901518255600182019150602085019450602081019050620008c3565b868310156200090a578489015162000906601f891682620007fa565b8355505b6001600288020188555050505b505050505050565b6000819050919050565b62000934816200091f565b82525050565b6200094581620006e4565b82525050565b620009568162000542565b82525050565b600060a08201905062000973600083018862000929565b62000982602083018762000929565b62000991604083018662000929565b620009a060608301856200093a565b620009af60808301846200094b565b9695505050505050565b600082825260208201905092915050565b6000620009d782620005ed565b620009e38185620009b9565b9350620009f581856020860162000478565b62000a0081620003ad565b840191505092915050565b6000602082019050818103600083015262000a278184620009ca565b905092915050565b600081519050919050565b6000819050602082019050919050565b600062000a5882516200091f565b80915050919050565b600062000a6e8262000a2f565b8262000a7a8462000a3a565b905062000a878162000a4a565b9250602082101562000aca5762000ac57fffffffffffffffffffffffffffffffffffffffffffffffffffffffffffffffff8360200360080262000681565b831692505b5050919050565b60805160a05160c05160e051610100516101205161014051611d5462000b2c60003960006103a00152600061036c01526000610b1001526000610aef0152600061067b015260006106d1015260006106fa0152611d546000f3fe608060405234801561001057600080fd5b50600436106100885760003560e01c806384b0196e1161005b57806384b0196e146101015780638da5cb5b146101255780639a034f1d14610143578063f2fde38b1461015f57610088565b80633644e5151461008d5780636b9d159d146100ab578063715018a6146100c75780637ecebe00146100d1575b600080fd5b61009561017b565b6040516100a29190610f87565b60405180910390f35b6100c560048036038101906100c091906110a0565b61018a565b005b6100cf6102f5565b005b6100eb60048036038101906100e6919061112d565b610309565b6040516100f89190611169565b60405180910390f35b610109610359565b60405161011c979695949392919061131c565b60405180910390f35b61012d61045b565b60405161013a91906113a0565b60405180910390f35b61015d600480360381019061015891906110a0565b610484565b005b6101796004803603810190610174919061112d565b6105a6565b005b6000610185610677565b905090565b60003390508673ffffffffffffffffffffffffffffffffffffffff1663d505accf823089898989896040518863ffffffff1660e01b81526004016101d497969594939291906113ca565b600060405180830381600087803b1580156101ee57600080fd5b505af1158015610202573d6000803e3d6000fd5b505050508673ffffffffffffffffffffffffffffffffffffffff166323b872dd8230896040518463ffffffff1660e01b815260040161024393929190611439565b6020604051808303816000875af1158015610262573d6000803e3d6000fd5b505050506040513d601f19601f8201168201806040525081019061028691906114a8565b508073ffffffffffffffffffffffffffffffffffffffff168773ffffffffffffffffffffffffffffffffffffffff167f5548c837ab068cf56a2c2479df0882a4922fd203edb7517321831d95078c5f62886040516102e49190611169565b60405180910390a350505050505050565b6102fd61072e565b61030760006107ac565b565b6000610352600460008473ffffffffffffffffffffffffffffffffffffffff1673ffffffffffffffffffffffffffffffffffffffff168152602001908152602001600020610870565b9050919050565b60006060806000806000606061039960017f000000000000000000000000000000000000000000000000000000000000000061087e90919063ffffffff16565b6103cd60027f000000000000000000000000000000000000000000000000000000000000000061087e90919063ffffffff16565b46306000801b600067ffffffffffffffff8111156103ee576103ed6114d5565b5b60405190808252806020026020018201604052801561041c5781602001602082028036833780820191505090505b507f0f00000000000000000000000000000000000000000000000000000000000000959493929190965096509650965096509650965090919293949596565b60008060009054906101000a900473ffffffffffffffffffffffffffffffffffffffff16905090565b60003390506104b9600360009054906101000a900473ffffffffffffffffffffffffffffffffffffffff16878787878761092e565b8673ffffffffffffffffffffffffffffffffffffffff1663a9059cbb82886040518363ffffffff1660e01b81526004016104f4929190611504565b6020604051808303816000875af1158015610513573d6000803e3d6000fd5b505050506040513d601f19601f8201168201806040525081019061053791906114a8565b508073ffffffffffffffffffffffffffffffffffffffff168773ffffffffffffffffffffffffffffffffffffffff167f9b1bfa7fa9ee420a16e124f794c35ac9f90472acc99140eb2f6447c714cad8eb886040516105959190611169565b60405180910390a350505050505050565b6105ae61072e565b600073ffffffffffffffffffffffffffffffffffffffff168173ffffffffffffffffffffffffffffffffffffffff160361061d576040517f08c379a00000000000000000000000000000000000000000000000000000000081526004016106149061159f565b60405180910390fd5b610626816107ac565b50565b60006020835110156106455761063e83610a62565b9050610667565b8261064f8361066d565b600001908161065e91906117cb565b5060ff60001b90505b92915050565b6000819050919050565b60007f000000000000000000000000000000000000000000000000000000000000000073ffffffffffffffffffffffffffffffffffffffff163073ffffffffffffffffffffffffffffffffffffffff161480156106f357507f000000000000000000000000000000000000000000000000000000000000000046145b15610720577f0000000000000000000000000000000000000000000000000000000000000000905061072b565b610728610aca565b90505b90565b610736610b60565b73ffffffffffffffffffffffffffffffffffffffff1661075461045b565b73ffffffffffffffffffffffffffffffffffffffff16146107aa576040517f08c379a00000000000000000000000000000000000000000000000000000000081526004016107a1906118e9565b60405180910390fd5b565b60008060009054906101000a900473ffffffffffffffffffffffffffffffffffffffff169050816000806101000a81548173ffffffffffffffffffffffffffffffffffffffff021916908373ffffffffffffffffffffffffffffffffffffffff1602179055508173ffffffffffffffffffffffffffffffffffffffff168173ffffffffffffffffffffffffffffffffffffffff167f8be0079c531659141344cd1fd0a4f28419497f9722a3daafe3b4186f6b6457e060405160405180910390a35050565b600081600001549050919050565b606060ff60001b831461089b5761089483610b68565b9050610928565b8180546108a7906115ee565b80601f01602080910402602001604051908101604052809291908181526020018280546108d3906115ee565b80156109205780601f106108f557610100808354040283529160200191610920565b820191906000526020600020905b81548152906001019060200180831161090357829003601f168201915b505050505090505b92915050565b83421115610971576040517f08c379a000000000000000000000000000000000000000000000000000000000815260040161096890611955565b60405180910390fd5b60007f465c48c967828ab49d19e4f806bb909a3398b817d6dee73d02f3fbf0d3fb1d81878761099f8a610bdc565b886040516020016109b4959493929190611975565b60405160208183030381529060405280519060200120905060006109d782610c3a565b905060006109e782878787610c54565b90508873ffffffffffffffffffffffffffffffffffffffff168173ffffffffffffffffffffffffffffffffffffffff1614610a57576040517f08c379a0000000000000000000000000000000000000000000000000000000008152600401610a4e90611a14565b60405180910390fd5b505050505050505050565b600080829050601f81511115610aaf57826040517f305a27a9000000000000000000000000000000000000000000000000000000008152600401610aa69190611a34565b60405180910390fd5b805181610abb90611a86565b60001c1760001b915050919050565b60007f8b73c3c69bb8fe3d512ecc4cf759cc79239f7b179b0ffacaa9a75d522b39400f7f00000000000000000000000000000000000000000000000000000000000000007f00000000000000000000000000000000000000000000000000000000000000004630604051602001610b45959493929190611aed565b60405160208183030381529060405280519060200120905090565b600033905090565b60606000610b7583610c7f565b90506000602067ffffffffffffffff811115610b9457610b936114d5565b5b6040519080825280601f01601f191660200182016040528015610bc65781602001600182028036833780820191505090505b5090508181528360208201528092505050919050565b600080600460008473ffffffffffffffffffffffffffffffffffffffff1673ffffffffffffffffffffffffffffffffffffffff1681526020019081526020016000209050610c2981610870565b9150610c3481610ccf565b50919050565b6000610c4d610c47610677565b83610ce5565b9050919050565b6000806000610c6587878787610d26565b91509150610c7281610e08565b8192505050949350505050565b60008060ff8360001c169050601f811115610cc6576040517fb3512b0c00000000000000000000000000000000000000000000000000000000815260040160405180910390fd5b80915050919050565b6001816000016000828254019250508190555050565b60006040517f190100000000000000000000000000000000000000000000000000000000000081528360028201528260228201526042812091505092915050565b6000807f7fffffffffffffffffffffffffffffff5d576e7357a4501ddfe92f46681b20a08360001c1115610d61576000600391509150610dff565b600060018787878760405160008152602001604052604051610d869493929190611b40565b6020604051602081039080840390855afa158015610da8573d6000803e3d6000fd5b505050602060405103519050600073ffffffffffffffffffffffffffffffffffffffff168173ffffffffffffffffffffffffffffffffffffffff1603610df657600060019250925050610dff565b80600092509250505b94509492505050565b60006004811115610e1c57610e1b611b85565b5b816004811115610e2f57610e2e611b85565b5b0315610f6b5760016004811115610e4957610e48611b85565b5b816004811115610e5c57610e5b611b85565b5b03610e9c576040517f08c379a0000000000000000000000000000000000000000000000000000000008152600401610e9390611c00565b60405180910390fd5b60026004811115610eb057610eaf611b85565b5b816004811115610ec357610ec2611b85565b5b03610f03576040517f08c379a0000000000000000000000000000000000000000000000000000000008152600401610efa90611c6c565b60405180910390fd5b60036004811115610f1757610f16611b85565b5b816004811115610f2a57610f29611b85565b5b03610f6a576040517f08c379a0000000000000000000000000000000000000000000000000000000008152600401610f6190611cfe565b60405180910390fd5b5b50565b6000819050919050565b610f8181610f6e565b82525050565b6000602082019050610f9c6000830184610f78565b92915050565b600080fd5b600073ffffffffffffffffffffffffffffffffffffffff82169050919050565b6000610fd282610fa7565b9050919050565b610fe281610fc7565b8114610fed57600080fd5b50565b600081359050610fff81610fd9565b92915050565b6000819050919050565b61101881611005565b811461102357600080fd5b50565b6000813590506110358161100f565b92915050565b600060ff82169050919050565b6110518161103b565b811461105c57600080fd5b50565b60008135905061106e81611048565b92915050565b61107d81610f6e565b811461108857600080fd5b50565b60008135905061109a81611074565b92915050565b60008060008060008060c087890312156110bd576110bc610fa2565b5b60006110cb89828a01610ff0565b96505060206110dc89828a01611026565b95505060406110ed89828a01611026565b94505060606110fe89828a0161105f565b935050608061110f89828a0161108b565b92505060a061112089828a0161108b565b9150509295509295509295565b60006020828403121561114357611142610fa2565b5b600061115184828501610ff0565b91505092915050565b61116381611005565b82525050565b600060208201905061117e600083018461115a565b92915050565b60007fff0000000000000000000000000000000000000000000000000000000000000082169050919050565b6111b981611184565b82525050565b600081519050919050565b600082825260208201905092915050565b60005b838110156111f95780820151818401526020810190506111de565b60008484015250505050565b6000601f19601f8301169050919050565b6000611221826111bf565b61122b81856111ca565b935061123b8185602086016111db565b61124481611205565b840191505092915050565b61125881610fc7565b82525050565b600081519050919050565b600082825260208201905092915050565b6000819050602082019050919050565b61129381611005565b82525050565b60006112a5838361128a565b60208301905092915050565b6000602082019050919050565b60006112c98261125e565b6112d38185611269565b93506112de8361127a565b8060005b8381101561130f5781516112f68882611299565b9750611301836112b1565b9250506001810190506112e2565b5085935050505092915050565b600060e082019050611331600083018a6111b0565b81810360208301526113438189611216565b905081810360408301526113578188611216565b9050611366606083018761115a565b611373608083018661124f565b61138060a0830185610f78565b81810360c083015261139281846112be565b905098975050505050505050565b60006020820190506113b5600083018461124f565b92915050565b6113c48161103b565b82525050565b600060e0820190506113df600083018a61124f565b6113ec602083018961124f565b6113f9604083018861115a565b611406606083018761115a565b61141360808301866113bb565b61142060a0830185610f78565b61142d60c0830184610f78565b98975050505050505050565b600060608201905061144e600083018661124f565b61145b602083018561124f565b611468604083018461115a565b949350505050565b60008115159050919050565b61148581611470565b811461149057600080fd5b50565b6000815190506114a28161147c565b92915050565b6000602082840312156114be576114bd610fa2565b5b60006114cc84828501611493565b91505092915050565b7f4e487b7100000000000000000000000000000000000000000000000000000000600052604160045260246000fd5b6000604082019050611519600083018561124f565b611526602083018461115a565b9392505050565b7f4f776e61626c653a206e6577206f776e657220697320746865207a65726f206160008201527f6464726573730000000000000000000000000000000000000000000000000000602082015250565b60006115896026836111ca565b91506115948261152d565b604082019050919050565b600060208201905081810360008301526115b88161157c565b9050919050565b7f4e487b7100000000000000000000000000000000000000000000000000000000600052602260045260246000fd5b6000600282049050600182168061160657607f821691505b602082108103611619576116186115bf565b5b50919050565b60008190508160005260206000209050919050565b60006020601f8301049050919050565b600082821b905092915050565b6000600883026116817fffffffffffffffffffffffffffffffffffffffffffffffffffffffffffffffff82611644565b61168b8683611644565b95508019841693508086168417925050509392505050565b6000819050919050565b60006116c86116c36116be84611005565b6116a3565b611005565b9050919050565b6000819050919050565b6116e2836116ad565b6116f66116ee826116cf565b848454611651565b825550505050565b600090565b61170b6116fe565b6117168184846116d9565b505050565b5b8181101561173a5761172f600082611703565b60018101905061171c565b5050565b601f82111561177f576117508161161f565b61175984611634565b81016020851015611768578190505b61177c61177485611634565b83018261171b565b50505b505050565b600082821c905092915050565b60006117a260001984600802611784565b1980831691505092915050565b60006117bb8383611791565b9150826002028217905092915050565b6117d4826111bf565b67ffffffffffffffff8111156117ed576117ec6114d5565b5b6117f782546115ee565b61180282828561173e565b600060209050601f8311600181146118355760008415611823578287015190505b61182d85826117af565b865550611895565b601f1984166118438661161f565b60005b8281101561186b57848901518255600182019150602085019450602081019050611846565b868310156118885784890151611884601f891682611791565b8355505b6001600288020188555050505b505050505050565b7f4f776e61626c653a2063616c6c6572206973206e6f7420746865206f776e6572600082015250565b60006118d36020836111ca565b91506118de8261189d565b602082019050919050565b60006020820190508181036000830152611902816118c6565b9050919050565b7f45524332305065726d69743a206578706972656420646561646c696e65000000600082015250565b600061193f601d836111ca565b915061194a82611909565b602082019050919050565b6000602082019050818103600083015261196e81611932565b9050919050565b600060a08201905061198a6000830188610f78565b611997602083018761124f565b6119a4604083018661115a565b6119b1606083018561115a565b6119be608083018461115a565b9695505050505050565b7f45524332305065726d69743a20696e76616c6964207369676e61747572650000600082015250565b60006119fe601e836111ca565b9150611a09826119c8565b602082019050919050565b60006020820190508181036000830152611a2d816119f1565b9050919050565b60006020820190508181036000830152611a4e8184611216565b905092915050565b600081519050919050565b6000819050602082019050919050565b6000611a7d8251610f6e565b80915050919050565b6000611a9182611a56565b82611a9b84611a61565b9050611aa681611a71565b92506020821015611ae657611ae17fffffffffffffffffffffffffffffffffffffffffffffffffffffffffffffffff83602003600802611644565b831692505b5050919050565b600060a082019050611b026000830188610f78565b611b0f6020830187610f78565b611b1c6040830186610f78565b611b29606083018561115a565b611b36608083018461124f565b9695505050505050565b6000608082019050611b556000830187610f78565b611b6260208301866113bb565b611b6f6040830185610f78565b611b7c6060830184610f78565b95945050505050565b7f4e487b7100000000000000000000000000000000000000000000000000000000600052602160045260246000fd5b7f45434453413a20696e76616c6964207369676e61747572650000000000000000600082015250565b6000611bea6018836111ca565b9150611bf582611bb4565b602082019050919050565b60006020820190508181036000830152611c1981611bdd565b9050919050565b7f45434453413a20696e76616c6964207369676e6174757265206c656e67746800600082015250565b6000611c56601f836111ca565b9150611c6182611c20565b602082019050919050565b60006020820190508181036000830152611c8581611c49565b9050919050565b7f45434453413a20696e76616c6964207369676e6174757265202773272076616c60008201527f7565000000000000000000000000000000000000000000000000000000000000602082015250565b6000611ce86022836111ca565b9150611cf382611c8c565b604082019050919050565b60006020820190508181036000830152611d1781611cdb565b905091905056fea26469706673582212208a61932dd5ad2b941cfd792a39c401de111f126496aba43185e43ddf17176ed164736f6c63430008120033",
  "linkReferences": {},
  "deployedLinkReferences": {}
}