{
  "_format": "hh-sol-artifact-1",
  "contractName": "Treasury",
  "sourceName": "contracts/Treasury.sol",
  "abi": [
    {
      "inputs": [
        {
          "internalType": "string",
          "name": "_name",
          "type": "string"
        },
        {
          "internalType": "address",
          "name": "_publicKey",
          "type": "address"
        }
      ],
      "stateMutability": "nonpayable",
      "type": "constructor"
    },
    {
      "inputs": [],
      "name": "InvalidShortString",
      "type": "error"
    },
    {
      "inputs": [
        {
          "internalType": "string",
          "name": "str",
          "type": "string"
        }
      ],
      "name": "StringTooLong",
      "type": "error"
    },
    {
      "anonymous": false,
      "inputs": [
        {
          "indexed": true,
          "internalType": "address",
          "name": "owner",
          "type": "address"
        },
        {
          "indexed": true,
          "internalType": "address",
          "name": "spender",
          "type": "address"
        },
        {
          "indexed": true,
          "internalType": "address",
          "name": "token",
          "type": "address"
        },
        {
          "indexed": false,
          "internalType": "uint256",
          "name": "amount",
          "type": "uint256"
        }
      ],
      "name": "Deposit",
      "type": "event"
    },
    {
      "anonymous": false,
      "inputs": [],
      "name": "EIP712DomainChanged",
      "type": "event"
    },
    {
      "anonymous": false,
      "inputs": [
        {
          "indexed": true,
          "internalType": "address",
          "name": "previousOwner",
          "type": "address"
        },
        {
          "indexed": true,
          "internalType": "address",
          "name": "newOwner",
          "type": "address"
        }
      ],
      "name": "OwnershipTransferred",
      "type": "event"
    },
    {
      "anonymous": false,
      "inputs": [
        {
          "indexed": true,
          "internalType": "address",
          "name": "owner",
          "type": "address"
        },
        {
          "indexed": true,
          "internalType": "address",
          "name": "spender",
          "type": "address"
        },
        {
          "indexed": true,
          "internalType": "address",
          "name": "token",
          "type": "address"
        },
        {
          "indexed": false,
          "internalType": "uint256",
          "name": "amount",
          "type": "uint256"
        },
        {
          "indexed": false,
          "internalType": "uint256",
          "name": "nonce",
          "type": "uint256"
        },
        {
          "indexed": false,
          "internalType": "uint256",
          "name": "deadline",
          "type": "uint256"
        }
      ],
      "name": "Withdraw",
      "type": "event"
    },
    {
      "inputs": [],
      "name": "DOMAIN_SEPARATOR",
      "outputs": [
        {
          "internalType": "bytes32",
          "name": "",
          "type": "bytes32"
        }
      ],
      "stateMutability": "view",
      "type": "function"
    },
    {
      "inputs": [
        {
          "internalType": "address",
          "name": "token",
          "type": "address"
        },
        {
          "internalType": "uint256",
          "name": "amount",
          "type": "uint256"
        },
        {
          "internalType": "uint256",
          "name": "deadline",
          "type": "uint256"
        },
        {
          "internalType": "uint8",
          "name": "v",
          "type": "uint8"
        },
        {
          "internalType": "bytes32",
          "name": "r",
          "type": "bytes32"
        },
        {
          "internalType": "bytes32",
          "name": "s",
          "type": "bytes32"
        }
      ],
      "name": "depositPermit",
      "outputs": [],
      "stateMutability": "nonpayable",
      "type": "function"
    },
    {
      "inputs": [],
      "name": "eip712Domain",
      "outputs": [
        {
          "internalType": "bytes1",
          "name": "fields",
          "type": "bytes1"
        },
        {
          "internalType": "string",
          "name": "name",
          "type": "string"
        },
        {
          "internalType": "string",
          "name": "version",
          "type": "string"
        },
        {
          "internalType": "uint256",
          "name": "chainId",
          "type": "uint256"
        },
        {
          "internalType": "address",
          "name": "verifyingContract",
          "type": "address"
        },
        {
          "internalType": "bytes32",
          "name": "salt",
          "type": "bytes32"
        },
        {
          "internalType": "uint256[]",
          "name": "extensions",
          "type": "uint256[]"
        }
      ],
      "stateMutability": "view",
      "type": "function"
    },
    {
      "inputs": [],
      "name": "name",
      "outputs": [
        {
          "internalType": "string",
          "name": "",
          "type": "string"
        }
      ],
      "stateMutability": "view",
      "type": "function"
    },
    {
      "inputs": [
        {
          "internalType": "address",
          "name": "owner",
          "type": "address"
        }
      ],
      "name": "nonces",
      "outputs": [
        {
          "internalType": "uint256",
          "name": "",
          "type": "uint256"
        }
      ],
      "stateMutability": "view",
      "type": "function"
    },
    {
      "inputs": [],
      "name": "owner",
      "outputs": [
        {
          "internalType": "address",
          "name": "",
          "type": "address"
        }
      ],
      "stateMutability": "view",
      "type": "function"
    },
    {
      "inputs": [],
      "name": "renounceOwnership",
      "outputs": [],
      "stateMutability": "nonpayable",
      "type": "function"
    },
    {
      "inputs": [
        {
          "internalType": "address",
          "name": "newOwner",
          "type": "address"
        }
      ],
      "name": "transferOwnership",
      "outputs": [],
      "stateMutability": "nonpayable",
      "type": "function"
    },
    {
      "inputs": [
        {
          "internalType": "address",
          "name": "token",
          "type": "address"
        },
        {
          "internalType": "uint256",
          "name": "amount",
          "type": "uint256"
        },
        {
          "internalType": "uint256",
          "name": "deadline",
          "type": "uint256"
        },
        {
          "internalType": "uint8",
          "name": "v",
          "type": "uint8"
        },
        {
          "internalType": "bytes32",
          "name": "r",
          "type": "bytes32"
        },
        {
          "internalType": "bytes32",
          "name": "s",
          "type": "bytes32"
        },
        {
          "internalType": "address",
          "name": "to",
          "type": "address"
        }
      ],
      "name": "withdrawPermit",
      "outputs": [],
      "stateMutability": "nonpayable",
      "type": "function"
    }
  ],
  "bytecode": "0x6101606040523480156200001257600080fd5b5060405162002acf38038062002acf833981810160405281019062000038919062000599565b816040518060400160405280600181526020017f31000000000000000000000000000000000000000000000000000000000000008152506200008f62000083620001a460201b60201c565b620001ac60201b60201c565b620000aa6001836200027060201b620008a51790919060201c565b6101208181525050620000cd6002826200027060201b620008a51790919060201c565b6101408181525050818051906020012060e08181525050808051906020012061010081815250504660a081815250506200010c620002cd60201b60201c565b608081815250503073ffffffffffffffffffffffffffffffffffffffff1660c08173ffffffffffffffffffffffffffffffffffffffff1681525050505080600360006101000a81548173ffffffffffffffffffffffffffffffffffffffff021916908373ffffffffffffffffffffffffffffffffffffffff16021790555081600490816200019b91906200084a565b50505062000ae3565b600033905090565b60008060009054906101000a900473ffffffffffffffffffffffffffffffffffffffff169050816000806101000a81548173ffffffffffffffffffffffffffffffffffffffff021916908373ffffffffffffffffffffffffffffffffffffffff1602179055508173ffffffffffffffffffffffffffffffffffffffff168173ffffffffffffffffffffffffffffffffffffffff167f8be0079c531659141344cd1fd0a4f28419497f9722a3daafe3b4186f6b6457e060405160405180910390a35050565b600060208351101562000296576200028e836200032a60201b60201c565b9050620002c7565b82620002ad836200039760201b620008e91760201c565b6000019081620002be91906200084a565b5060ff60001b90505b92915050565b60007f8b73c3c69bb8fe3d512ecc4cf759cc79239f7b179b0ffacaa9a75d522b39400f60e0516101005146306040516020016200030f9594939291906200096e565b60405160208183030381529060405280519060200120905090565b600080829050601f815111156200037a57826040517f305a27a900000000000000000000000000000000000000000000000000000000815260040162000371919062000a1d565b60405180910390fd5b805181620003889062000a73565b60001c1760001b915050919050565b6000819050919050565b6000604051905090565b600080fd5b600080fd5b600080fd5b600080fd5b6000601f19601f8301169050919050565b7f4e487b7100000000000000000000000000000000000000000000000000000000600052604160045260246000fd5b6200040a82620003bf565b810181811067ffffffffffffffff821117156200042c576200042b620003d0565b5b80604052505050565b600062000441620003a1565b90506200044f8282620003ff565b919050565b600067ffffffffffffffff821115620004725762000471620003d0565b5b6200047d82620003bf565b9050602081019050919050565b60005b83811015620004aa5780820151818401526020810190506200048d565b60008484015250505050565b6000620004cd620004c78462000454565b62000435565b905082815260208101848484011115620004ec57620004eb620003ba565b5b620004f98482856200048a565b509392505050565b600082601f830112620005195762000518620003b5565b5b81516200052b848260208601620004b6565b91505092915050565b600073ffffffffffffffffffffffffffffffffffffffff82169050919050565b6000620005618262000534565b9050919050565b620005738162000554565b81146200057f57600080fd5b50565b600081519050620005938162000568565b92915050565b60008060408385031215620005b357620005b2620003ab565b5b600083015167ffffffffffffffff811115620005d457620005d3620003b0565b5b620005e28582860162000501565b9250506020620005f58582860162000582565b9150509250929050565b600081519050919050565b7f4e487b7100000000000000000000000000000000000000000000000000000000600052602260045260246000fd5b600060028204905060018216806200065257607f821691505b6020821081036200066857620006676200060a565b5b50919050565b60008190508160005260206000209050919050565b60006020601f8301049050919050565b600082821b905092915050565b600060088302620006d27fffffffffffffffffffffffffffffffffffffffffffffffffffffffffffffffff8262000693565b620006de868362000693565b95508019841693508086168417925050509392505050565b6000819050919050565b6000819050919050565b60006200072b620007256200071f84620006f6565b62000700565b620006f6565b9050919050565b6000819050919050565b62000747836200070a565b6200075f620007568262000732565b848454620006a0565b825550505050565b600090565b6200077662000767565b620007838184846200073c565b505050565b5b81811015620007ab576200079f6000826200076c565b60018101905062000789565b5050565b601f821115620007fa57620007c4816200066e565b620007cf8462000683565b81016020851015620007df578190505b620007f7620007ee8562000683565b83018262000788565b50505b505050565b600082821c905092915050565b60006200081f60001984600802620007ff565b1980831691505092915050565b60006200083a83836200080c565b9150826002028217905092915050565b6200085582620005ff565b67ffffffffffffffff811115620008715762000870620003d0565b5b6200087d825462000639565b6200088a828285620007af565b600060209050601f831160018114620008c25760008415620008ad578287015190505b620008b985826200082c565b86555062000929565b601f198416620008d2866200066e565b60005b82811015620008fc57848901518255600182019150602085019450602081019050620008d5565b868310156200091c578489015162000918601f8916826200080c565b8355505b6001600288020188555050505b505050505050565b6000819050919050565b620009468162000931565b82525050565b6200095781620006f6565b82525050565b620009688162000554565b82525050565b600060a0820190506200098560008301886200093b565b6200099460208301876200093b565b620009a360408301866200093b565b620009b260608301856200094c565b620009c160808301846200095d565b9695505050505050565b600082825260208201905092915050565b6000620009e982620005ff565b620009f58185620009cb565b935062000a078185602086016200048a565b62000a1281620003bf565b840191505092915050565b6000602082019050818103600083015262000a398184620009dc565b905092915050565b600081519050919050565b6000819050602082019050919050565b600062000a6a825162000931565b80915050919050565b600062000a808262000a41565b8262000a8c8462000a4c565b905062000a998162000a5c565b9250602082101562000adc5762000ad77fffffffffffffffffffffffffffffffffffffffffffffffffffffffffffffffff8360200360080262000693565b831692505b5050919050565b60805160a05160c05160e051610100516101205161014051611f9162000b3e60003960006104940152600061046001526000610cfb01526000610cda015260006108f70152600061094d015260006109760152611f916000f3fe608060405234801561001057600080fd5b50600436106100935760003560e01c80637ecebe00116100665780637ecebe00146100fa57806384b0196e1461012a5780638da5cb5b1461014e578063e9deb8ec1461016c578063f2fde38b1461018857610093565b806306fdde03146100985780633644e515146100b65780636b9d159d146100d4578063715018a6146100f0575b600080fd5b6100a06101a4565b6040516100ad9190611146565b60405180910390f35b6100be610236565b6040516100cb9190611181565b60405180910390f35b6100ee60048036038101906100e9919061129a565b610245565b005b6100f86103e9565b005b610114600480360381019061010f9190611327565b6103fd565b6040516101219190611363565b60405180910390f35b61013261044d565b6040516101459796959493929190611486565b60405180910390f35b61015661054f565b604051610163919061150a565b60405180910390f35b61018660048036038101906101819190611525565b610578565b005b6101a2600480360381019061019d9190611327565b610822565b005b6060600480546101b3906115f6565b80601f01602080910402602001604051908101604052809291908181526020018280546101df906115f6565b801561022c5780601f106102015761010080835404028352916020019161022c565b820191906000526020600020905b81548152906001019060200180831161020f57829003601f168201915b5050505050905090565b60006102406108f3565b905090565b60003390508673ffffffffffffffffffffffffffffffffffffffff1663d505accf823089898989896040518863ffffffff1660e01b815260040161028f9796959493929190611636565b600060405180830381600087803b1580156102a957600080fd5b505af11580156102bd573d6000803e3d6000fd5b505050508673ffffffffffffffffffffffffffffffffffffffff166323b872dd8230896040518463ffffffff1660e01b81526004016102fe939291906116a5565b6020604051808303816000875af115801561031d573d6000803e3d6000fd5b505050506040513d601f19601f820116820180604052508101906103419190611714565b508673ffffffffffffffffffffffffffffffffffffffff16600360009054906101000a900473ffffffffffffffffffffffffffffffffffffffff1673ffffffffffffffffffffffffffffffffffffffff168273ffffffffffffffffffffffffffffffffffffffff167f7cfff908a4b583f36430b25d75964c458d8ede8a99bd61be750e97ee1b2f3a96896040516103d89190611363565b60405180910390a450505050505050565b6103f16109aa565b6103fb6000610a28565b565b6000610446600560008473ffffffffffffffffffffffffffffffffffffffff1673ffffffffffffffffffffffffffffffffffffffff168152602001908152602001600020610aec565b9050919050565b60006060806000806000606061048d60017f0000000000000000000000000000000000000000000000000000000000000000610afa90919063ffffffff16565b6104c160027f0000000000000000000000000000000000000000000000000000000000000000610afa90919063ffffffff16565b46306000801b600067ffffffffffffffff8111156104e2576104e1611741565b5b6040519080825280602002602001820160405280156105105781602001602082028036833780820191505090505b507f0f00000000000000000000000000000000000000000000000000000000000000959493929190965096509650965096509650965090919293949596565b60008060009054906101000a900473ffffffffffffffffffffffffffffffffffffffff16905090565b6000339050600061058882610baa565b9050864211156105cd576040517f08c379a00000000000000000000000000000000000000000000000000000000081526004016105c4906117bc565b60405180910390fd5b60007fbdb8db57b2e31447bff640fcc287b05a31c3da45ca140eaa5ba8f3b09ac99506600360009054906101000a900473ffffffffffffffffffffffffffffffffffffffff16848c8c868d60405160200161062e97969594939291906117dc565b604051602081830303815290604052805190602001209050600061065182610c08565b90506000610661828a8a8a610c22565b9050600360009054906101000a900473ffffffffffffffffffffffffffffffffffffffff1673ffffffffffffffffffffffffffffffffffffffff168173ffffffffffffffffffffffffffffffffffffffff16146106f3576040517f08c379a00000000000000000000000000000000000000000000000000000000081526004016106ea90611897565b60405180910390fd5b8b73ffffffffffffffffffffffffffffffffffffffff1663a9059cbb878d6040518363ffffffff1660e01b815260040161072e9291906118b7565b6020604051808303816000875af115801561074d573d6000803e3d6000fd5b505050506040513d601f19601f820116820180604052508101906107719190611714565b508b73ffffffffffffffffffffffffffffffffffffffff168573ffffffffffffffffffffffffffffffffffffffff16600360009054906101000a900473ffffffffffffffffffffffffffffffffffffffff1673ffffffffffffffffffffffffffffffffffffffff167fbbbdee62287b5bf3bee13cab60a29ad729cf38109bccbd2a986a11c99b8ca7048e888f60405161080c939291906118e0565b60405180910390a4505050505050505050505050565b61082a6109aa565b600073ffffffffffffffffffffffffffffffffffffffff168173ffffffffffffffffffffffffffffffffffffffff1603610899576040517f08c379a000000000000000000000000000000000000000000000000000000000815260040161089090611989565b60405180910390fd5b6108a281610a28565b50565b60006020835110156108c1576108ba83610c4d565b90506108e3565b826108cb836108e9565b60000190816108da9190611b55565b5060ff60001b90505b92915050565b6000819050919050565b60007f000000000000000000000000000000000000000000000000000000000000000073ffffffffffffffffffffffffffffffffffffffff163073ffffffffffffffffffffffffffffffffffffffff1614801561096f57507f000000000000000000000000000000000000000000000000000000000000000046145b1561099c577f000000000000000000000000000000000000000000000000000000000000000090506109a7565b6109a4610cb5565b90505b90565b6109b2610d4b565b73ffffffffffffffffffffffffffffffffffffffff166109d061054f565b73ffffffffffffffffffffffffffffffffffffffff1614610a26576040517f08c379a0000000000000000000000000000000000000000000000000000000008152600401610a1d90611c73565b60405180910390fd5b565b60008060009054906101000a900473ffffffffffffffffffffffffffffffffffffffff169050816000806101000a81548173ffffffffffffffffffffffffffffffffffffffff021916908373ffffffffffffffffffffffffffffffffffffffff1602179055508173ffffffffffffffffffffffffffffffffffffffff168173ffffffffffffffffffffffffffffffffffffffff167f8be0079c531659141344cd1fd0a4f28419497f9722a3daafe3b4186f6b6457e060405160405180910390a35050565b600081600001549050919050565b606060ff60001b8314610b1757610b1083610d53565b9050610ba4565b818054610b23906115f6565b80601f0160208091040260200160405190810160405280929190818152602001828054610b4f906115f6565b8015610b9c5780601f10610b7157610100808354040283529160200191610b9c565b820191906000526020600020905b815481529060010190602001808311610b7f57829003601f168201915b505050505090505b92915050565b600080600560008473ffffffffffffffffffffffffffffffffffffffff1673ffffffffffffffffffffffffffffffffffffffff1681526020019081526020016000209050610bf781610aec565b9150610c0281610dc7565b50919050565b6000610c1b610c156108f3565b83610ddd565b9050919050565b6000806000610c3387878787610e1e565b91509150610c4081610f00565b8192505050949350505050565b600080829050601f81511115610c9a57826040517f305a27a9000000000000000000000000000000000000000000000000000000008152600401610c919190611146565b60405180910390fd5b805181610ca690611cc3565b60001c1760001b915050919050565b60007f8b73c3c69bb8fe3d512ecc4cf759cc79239f7b179b0ffacaa9a75d522b39400f7f00000000000000000000000000000000000000000000000000000000000000007f00000000000000000000000000000000000000000000000000000000000000004630604051602001610d30959493929190611d2a565b60405160208183030381529060405280519060200120905090565b600033905090565b60606000610d6083611066565b90506000602067ffffffffffffffff811115610d7f57610d7e611741565b5b6040519080825280601f01601f191660200182016040528015610db15781602001600182028036833780820191505090505b5090508181528360208201528092505050919050565b6001816000016000828254019250508190555050565b60006040517f190100000000000000000000000000000000000000000000000000000000000081528360028201528260228201526042812091505092915050565b6000807f7fffffffffffffffffffffffffffffff5d576e7357a4501ddfe92f46681b20a08360001c1115610e59576000600391509150610ef7565b600060018787878760405160008152602001604052604051610e7e9493929190611d7d565b6020604051602081039080840390855afa158015610ea0573d6000803e3d6000fd5b505050602060405103519050600073ffffffffffffffffffffffffffffffffffffffff168173ffffffffffffffffffffffffffffffffffffffff1603610eee57600060019250925050610ef7565b80600092509250505b94509492505050565b60006004811115610f1457610f13611dc2565b5b816004811115610f2757610f26611dc2565b5b03156110635760016004811115610f4157610f40611dc2565b5b816004811115610f5457610f53611dc2565b5b03610f94576040517f08c379a0000000000000000000000000000000000000000000000000000000008152600401610f8b90611e3d565b60405180910390fd5b60026004811115610fa857610fa7611dc2565b5b816004811115610fbb57610fba611dc2565b5b03610ffb576040517f08c379a0000000000000000000000000000000000000000000000000000000008152600401610ff290611ea9565b60405180910390fd5b6003600481111561100f5761100e611dc2565b5b81600481111561102257611021611dc2565b5b03611062576040517f08c379a000000000000000000000000000000000000000000000000000000000815260040161105990611f3b565b60405180910390fd5b5b50565b60008060ff8360001c169050601f8111156110ad576040517fb3512b0c00000000000000000000000000000000000000000000000000000000815260040160405180910390fd5b80915050919050565b600081519050919050565b600082825260208201905092915050565b60005b838110156110f05780820151818401526020810190506110d5565b60008484015250505050565b6000601f19601f8301169050919050565b6000611118826110b6565b61112281856110c1565b93506111328185602086016110d2565b61113b816110fc565b840191505092915050565b60006020820190508181036000830152611160818461110d565b905092915050565b6000819050919050565b61117b81611168565b82525050565b60006020820190506111966000830184611172565b92915050565b600080fd5b600073ffffffffffffffffffffffffffffffffffffffff82169050919050565b60006111cc826111a1565b9050919050565b6111dc816111c1565b81146111e757600080fd5b50565b6000813590506111f9816111d3565b92915050565b6000819050919050565b611212816111ff565b811461121d57600080fd5b50565b60008135905061122f81611209565b92915050565b600060ff82169050919050565b61124b81611235565b811461125657600080fd5b50565b60008135905061126881611242565b92915050565b61127781611168565b811461128257600080fd5b50565b6000813590506112948161126e565b92915050565b60008060008060008060c087890312156112b7576112b661119c565b5b60006112c589828a016111ea565b96505060206112d689828a01611220565b95505060406112e789828a01611220565b94505060606112f889828a01611259565b935050608061130989828a01611285565b92505060a061131a89828a01611285565b9150509295509295509295565b60006020828403121561133d5761133c61119c565b5b600061134b848285016111ea565b91505092915050565b61135d816111ff565b82525050565b60006020820190506113786000830184611354565b92915050565b60007fff0000000000000000000000000000000000000000000000000000000000000082169050919050565b6113b38161137e565b82525050565b6113c2816111c1565b82525050565b600081519050919050565b600082825260208201905092915050565b6000819050602082019050919050565b6113fd816111ff565b82525050565b600061140f83836113f4565b60208301905092915050565b6000602082019050919050565b6000611433826113c8565b61143d81856113d3565b9350611448836113e4565b8060005b838110156114795781516114608882611403565b975061146b8361141b565b92505060018101905061144c565b5085935050505092915050565b600060e08201905061149b600083018a6113aa565b81810360208301526114ad818961110d565b905081810360408301526114c1818861110d565b90506114d06060830187611354565b6114dd60808301866113b9565b6114ea60a0830185611172565b81810360c08301526114fc8184611428565b905098975050505050505050565b600060208201905061151f60008301846113b9565b92915050565b600080600080600080600060e0888a0312156115445761154361119c565b5b60006115528a828b016111ea565b97505060206115638a828b01611220565b96505060406115748a828b01611220565b95505060606115858a828b01611259565b94505060806115968a828b01611285565b93505060a06115a78a828b01611285565b92505060c06115b88a828b016111ea565b91505092959891949750929550565b7f4e487b7100000000000000000000000000000000000000000000000000000000600052602260045260246000fd5b6000600282049050600182168061160e57607f821691505b602082108103611621576116206115c7565b5b50919050565b61163081611235565b82525050565b600060e08201905061164b600083018a6113b9565b61165860208301896113b9565b6116656040830188611354565b6116726060830187611354565b61167f6080830186611627565b61168c60a0830185611172565b61169960c0830184611172565b98975050505050505050565b60006060820190506116ba60008301866113b9565b6116c760208301856113b9565b6116d46040830184611354565b949350505050565b60008115159050919050565b6116f1816116dc565b81146116fc57600080fd5b50565b60008151905061170e816116e8565b92915050565b60006020828403121561172a5761172961119c565b5b6000611738848285016116ff565b91505092915050565b7f4e487b7100000000000000000000000000000000000000000000000000000000600052604160045260246000fd5b7f45524332305065726d69743a206578706972656420646561646c696e65000000600082015250565b60006117a6601d836110c1565b91506117b182611770565b602082019050919050565b600060208201905081810360008301526117d581611799565b9050919050565b600060e0820190506117f1600083018a611172565b6117fe60208301896113b9565b61180b60408301886113b9565b61181860608301876113b9565b6118256080830186611354565b61183260a0830185611354565b61183f60c0830184611354565b98975050505050505050565b7f45524332305065726d69743a20696e76616c6964207369676e61747572650000600082015250565b6000611881601e836110c1565b915061188c8261184b565b602082019050919050565b600060208201905081810360008301526118b081611874565b9050919050565b60006040820190506118cc60008301856113b9565b6118d96020830184611354565b9392505050565b60006060820190506118f56000830186611354565b6119026020830185611354565b61190f6040830184611354565b949350505050565b7f4f776e61626c653a206e6577206f776e657220697320746865207a65726f206160008201527f6464726573730000000000000000000000000000000000000000000000000000602082015250565b60006119736026836110c1565b915061197e82611917565b604082019050919050565b600060208201905081810360008301526119a281611966565b9050919050565b60008190508160005260206000209050919050565b60006020601f8301049050919050565b600082821b905092915050565b600060088302611a0b7fffffffffffffffffffffffffffffffffffffffffffffffffffffffffffffffff826119ce565b611a1586836119ce565b95508019841693508086168417925050509392505050565b6000819050919050565b6000611a52611a4d611a48846111ff565b611a2d565b6111ff565b9050919050565b6000819050919050565b611a6c83611a37565b611a80611a7882611a59565b8484546119db565b825550505050565b600090565b611a95611a88565b611aa0818484611a63565b505050565b5b81811015611ac457611ab9600082611a8d565b600181019050611aa6565b5050565b601f821115611b0957611ada816119a9565b611ae3846119be565b81016020851015611af2578190505b611b06611afe856119be565b830182611aa5565b50505b505050565b600082821c905092915050565b6000611b2c60001984600802611b0e565b1980831691505092915050565b6000611b458383611b1b565b9150826002028217905092915050565b611b5e826110b6565b67ffffffffffffffff811115611b7757611b76611741565b5b611b8182546115f6565b611b8c828285611ac8565b600060209050601f831160018114611bbf5760008415611bad578287015190505b611bb78582611b39565b865550611c1f565b601f198416611bcd866119a9565b60005b82811015611bf557848901518255600182019150602085019450602081019050611bd0565b86831015611c125784890151611c0e601f891682611b1b565b8355505b6001600288020188555050505b505050505050565b7f4f776e61626c653a2063616c6c6572206973206e6f7420746865206f776e6572600082015250565b6000611c5d6020836110c1565b9150611c6882611c27565b602082019050919050565b60006020820190508181036000830152611c8c81611c50565b9050919050565b600081519050919050565b6000819050602082019050919050565b6000611cba8251611168565b80915050919050565b6000611cce82611c93565b82611cd884611c9e565b9050611ce381611cae565b92506020821015611d2357611d1e7fffffffffffffffffffffffffffffffffffffffffffffffffffffffffffffffff836020036008026119ce565b831692505b5050919050565b600060a082019050611d3f6000830188611172565b611d4c6020830187611172565b611d596040830186611172565b611d666060830185611354565b611d7360808301846113b9565b9695505050505050565b6000608082019050611d926000830187611172565b611d9f6020830186611627565b611dac6040830185611172565b611db96060830184611172565b95945050505050565b7f4e487b7100000000000000000000000000000000000000000000000000000000600052602160045260246000fd5b7f45434453413a20696e76616c6964207369676e61747572650000000000000000600082015250565b6000611e276018836110c1565b9150611e3282611df1565b602082019050919050565b60006020820190508181036000830152611e5681611e1a565b9050919050565b7f45434453413a20696e76616c6964207369676e6174757265206c656e67746800600082015250565b6000611e93601f836110c1565b9150611e9e82611e5d565b602082019050919050565b60006020820190508181036000830152611ec281611e86565b9050919050565b7f45434453413a20696e76616c6964207369676e6174757265202773272076616c60008201527f7565000000000000000000000000000000000000000000000000000000000000602082015250565b6000611f256022836110c1565b9150611f3082611ec9565b604082019050919050565b60006020820190508181036000830152611f5481611f18565b905091905056fea2646970667358221220a4987e6484abdcfe8da009a3472214a7e199fa4973a75fe50d9d6a2ed780768164736f6c63430008120033",
  "linkReferences": {},
  "deployedLinkReferences": {}
}