{
  "_format": "hh-sol-artifact-1",
  "contractName": "Treasury",
  "sourceName": "contracts/Treasury.sol",
  "abi": [
    {
      "inputs": [
        {
          "internalType": "string",
          "name": "_name",
          "type": "string"
        },
        {
          "internalType": "address payable",
          "name": "_weth",
          "type": "address"
        },
        {
          "internalType": "address",
          "name": "_publicKey",
          "type": "address"
        }
      ],
      "stateMutability": "nonpayable",
      "type": "constructor"
    },
    {
      "inputs": [],
      "name": "InvalidShortString",
      "type": "error"
    },
    {
      "inputs": [
        {
          "internalType": "string",
          "name": "str",
          "type": "string"
        }
      ],
      "name": "StringTooLong",
      "type": "error"
    },
    {
      "anonymous": false,
      "inputs": [
        {
          "indexed": true,
          "internalType": "address",
          "name": "owner",
          "type": "address"
        },
        {
          "indexed": true,
          "internalType": "address",
          "name": "spender",
          "type": "address"
        },
        {
          "indexed": true,
          "internalType": "address",
          "name": "token",
          "type": "address"
        },
        {
          "indexed": false,
          "internalType": "uint256",
          "name": "amount",
          "type": "uint256"
        }
      ],
      "name": "Deposit",
      "type": "event"
    },
    {
      "anonymous": false,
      "inputs": [],
      "name": "EIP712DomainChanged",
      "type": "event"
    },
    {
      "anonymous": false,
      "inputs": [
        {
          "indexed": true,
          "internalType": "address",
          "name": "previousOwner",
          "type": "address"
        },
        {
          "indexed": true,
          "internalType": "address",
          "name": "newOwner",
          "type": "address"
        }
      ],
      "name": "OwnershipTransferred",
      "type": "event"
    },
    {
      "anonymous": false,
      "inputs": [
        {
          "indexed": true,
          "internalType": "address",
          "name": "owner",
          "type": "address"
        },
        {
          "indexed": true,
          "internalType": "address",
          "name": "spender",
          "type": "address"
        },
        {
          "indexed": true,
          "internalType": "address",
          "name": "token",
          "type": "address"
        },
        {
          "indexed": false,
          "internalType": "uint256",
          "name": "amount",
          "type": "uint256"
        },
        {
          "indexed": false,
          "internalType": "uint256",
          "name": "nonce",
          "type": "uint256"
        },
        {
          "indexed": false,
          "internalType": "uint256",
          "name": "deadline",
          "type": "uint256"
        }
      ],
      "name": "Withdraw",
      "type": "event"
    },
    {
      "inputs": [
        {
          "internalType": "address",
          "name": "token",
          "type": "address"
        },
        {
          "internalType": "uint256",
          "name": "amount",
          "type": "uint256"
        },
        {
          "internalType": "address",
          "name": "to",
          "type": "address"
        }
      ],
      "name": "adminWithdraw",
      "outputs": [],
      "stateMutability": "nonpayable",
      "type": "function"
    },
    {
      "inputs": [
        {
          "internalType": "address",
          "name": "token",
          "type": "address"
        },
        {
          "internalType": "uint256",
          "name": "amount",
          "type": "uint256"
        }
      ],
      "name": "deposit",
      "outputs": [],
      "stateMutability": "nonpayable",
      "type": "function"
    },
    {
      "inputs": [],
      "name": "eip712Domain",
      "outputs": [
        {
          "internalType": "bytes1",
          "name": "fields",
          "type": "bytes1"
        },
        {
          "internalType": "string",
          "name": "name",
          "type": "string"
        },
        {
          "internalType": "string",
          "name": "version",
          "type": "string"
        },
        {
          "internalType": "uint256",
          "name": "chainId",
          "type": "uint256"
        },
        {
          "internalType": "address",
          "name": "verifyingContract",
          "type": "address"
        },
        {
          "internalType": "bytes32",
          "name": "salt",
          "type": "bytes32"
        },
        {
          "internalType": "uint256[]",
          "name": "extensions",
          "type": "uint256[]"
        }
      ],
      "stateMutability": "view",
      "type": "function"
    },
    {
      "inputs": [],
      "name": "freeze",
      "outputs": [],
      "stateMutability": "nonpayable",
      "type": "function"
    },
    {
      "inputs": [],
      "name": "isFrozen",
      "outputs": [
        {
          "internalType": "bool",
          "name": "",
          "type": "bool"
        }
      ],
      "stateMutability": "view",
      "type": "function"
    },
    {
      "inputs": [],
      "name": "name",
      "outputs": [
        {
          "internalType": "string",
          "name": "",
          "type": "string"
        }
      ],
      "stateMutability": "view",
      "type": "function"
    },
    {
      "inputs": [
        {
          "internalType": "address",
          "name": "owner",
          "type": "address"
        }
      ],
      "name": "nonces",
      "outputs": [
        {
          "internalType": "uint256",
          "name": "",
          "type": "uint256"
        }
      ],
      "stateMutability": "view",
      "type": "function"
    },
    {
      "inputs": [],
      "name": "owner",
      "outputs": [
        {
          "internalType": "address",
          "name": "",
          "type": "address"
        }
      ],
      "stateMutability": "view",
      "type": "function"
    },
    {
      "inputs": [],
      "name": "renounceOwnership",
      "outputs": [],
      "stateMutability": "nonpayable",
      "type": "function"
    },
    {
      "inputs": [
        {
          "internalType": "address",
          "name": "newOwner",
          "type": "address"
        }
      ],
      "name": "transferOwnership",
      "outputs": [],
      "stateMutability": "nonpayable",
      "type": "function"
    },
    {
      "inputs": [],
      "name": "unfreeze",
      "outputs": [],
      "stateMutability": "nonpayable",
      "type": "function"
    },
    {
      "inputs": [
        {
          "internalType": "address",
          "name": "token",
          "type": "address"
        },
        {
          "internalType": "uint256",
          "name": "amount",
          "type": "uint256"
        },
        {
          "internalType": "uint256",
          "name": "deadline",
          "type": "uint256"
        },
        {
          "internalType": "uint8",
          "name": "v",
          "type": "uint8"
        },
        {
          "internalType": "bytes32",
          "name": "r",
          "type": "bytes32"
        },
        {
          "internalType": "bytes32",
          "name": "s",
          "type": "bytes32"
        },
        {
          "internalType": "address",
          "name": "to",
          "type": "address"
        }
      ],
      "name": "withdraw",
      "outputs": [],
      "stateMutability": "nonpayable",
      "type": "function"
    },
    {
      "stateMutability": "payable",
      "type": "receive"
    }
  ],
  "bytecode": "0x6101606040523480156200001257600080fd5b506040516200303b3803806200303b83398181016040528101906200003891906200063b565b826040518060400160405280600181526020017f31000000000000000000000000000000000000000000000000000000000000008152506200008f620000836200020160201b60201c565b6200020960201b60201c565b620000aa600183620002cd60201b62000cb61790919060201c565b6101208181525050620000cd600282620002cd60201b62000cb61790919060201c565b6101408181525050818051906020012060e08181525050808051906020012061010081815250504660a081815250506200010c6200032a60201b60201c565b608081815250503073ffffffffffffffffffffffffffffffffffffffff1660c08173ffffffffffffffffffffffffffffffffffffffff1681525050505080600360006101000a81548173ffffffffffffffffffffffffffffffffffffffff021916908373ffffffffffffffffffffffffffffffffffffffff16021790555082600490816200019b919062000901565b5081600560006101000a81548173ffffffffffffffffffffffffffffffffffffffff021916908373ffffffffffffffffffffffffffffffffffffffff1602179055506000600560146101000a81548160ff02191690831515021790555050505062000b9a565b600033905090565b60008060009054906101000a900473ffffffffffffffffffffffffffffffffffffffff169050816000806101000a81548173ffffffffffffffffffffffffffffffffffffffff021916908373ffffffffffffffffffffffffffffffffffffffff1602179055508173ffffffffffffffffffffffffffffffffffffffff168173ffffffffffffffffffffffffffffffffffffffff167f8be0079c531659141344cd1fd0a4f28419497f9722a3daafe3b4186f6b6457e060405160405180910390a35050565b6000602083511015620002f357620002eb836200038760201b60201c565b905062000324565b826200030a83620003f460201b62000cfa1760201c565b60000190816200031b919062000901565b5060ff60001b90505b92915050565b60007f8b73c3c69bb8fe3d512ecc4cf759cc79239f7b179b0ffacaa9a75d522b39400f60e0516101005146306040516020016200036c95949392919062000a25565b60405160208183030381529060405280519060200120905090565b600080829050601f81511115620003d757826040517f305a27a9000000000000000000000000000000000000000000000000000000008152600401620003ce919062000ad4565b60405180910390fd5b805181620003e59062000b2a565b60001c1760001b915050919050565b6000819050919050565b6000604051905090565b600080fd5b600080fd5b600080fd5b600080fd5b6000601f19601f8301169050919050565b7f4e487b7100000000000000000000000000000000000000000000000000000000600052604160045260246000fd5b62000467826200041c565b810181811067ffffffffffffffff821117156200048957620004886200042d565b5b80604052505050565b60006200049e620003fe565b9050620004ac82826200045c565b919050565b600067ffffffffffffffff821115620004cf57620004ce6200042d565b5b620004da826200041c565b9050602081019050919050565b60005b8381101562000507578082015181840152602081019050620004ea565b60008484015250505050565b60006200052a6200052484620004b1565b62000492565b90508281526020810184848401111562000549576200054862000417565b5b62000556848285620004e7565b509392505050565b600082601f83011262000576576200057562000412565b5b81516200058884826020860162000513565b91505092915050565b600073ffffffffffffffffffffffffffffffffffffffff82169050919050565b6000620005be8262000591565b9050919050565b620005d081620005b1565b8114620005dc57600080fd5b50565b600081519050620005f081620005c5565b92915050565b6000620006038262000591565b9050919050565b6200061581620005f6565b81146200062157600080fd5b50565b60008151905062000635816200060a565b92915050565b60008060006060848603121562000657576200065662000408565b5b600084015167ffffffffffffffff8111156200067857620006776200040d565b5b62000686868287016200055e565b93505060206200069986828701620005df565b9250506040620006ac8682870162000624565b9150509250925092565b600081519050919050565b7f4e487b7100000000000000000000000000000000000000000000000000000000600052602260045260246000fd5b600060028204905060018216806200070957607f821691505b6020821081036200071f576200071e620006c1565b5b50919050565b60008190508160005260206000209050919050565b60006020601f8301049050919050565b600082821b905092915050565b600060088302620007897fffffffffffffffffffffffffffffffffffffffffffffffffffffffffffffffff826200074a565b6200079586836200074a565b95508019841693508086168417925050509392505050565b6000819050919050565b6000819050919050565b6000620007e2620007dc620007d684620007ad565b620007b7565b620007ad565b9050919050565b6000819050919050565b620007fe83620007c1565b620008166200080d82620007e9565b84845462000757565b825550505050565b600090565b6200082d6200081e565b6200083a818484620007f3565b505050565b5b8181101562000862576200085660008262000823565b60018101905062000840565b5050565b601f821115620008b1576200087b8162000725565b62000886846200073a565b8101602085101562000896578190505b620008ae620008a5856200073a565b8301826200083f565b50505b505050565b600082821c905092915050565b6000620008d660001984600802620008b6565b1980831691505092915050565b6000620008f18383620008c3565b9150826002028217905092915050565b6200090c82620006b6565b67ffffffffffffffff8111156200092857620009276200042d565b5b620009348254620006f0565b6200094182828562000866565b600060209050601f83116001811462000979576000841562000964578287015190505b620009708582620008e3565b865550620009e0565b601f198416620009898662000725565b60005b82811015620009b3578489015182556001820191506020850194506020810190506200098c565b86831015620009d35784890151620009cf601f891682620008c3565b8355505b6001600288020188555050505b505050505050565b6000819050919050565b620009fd81620009e8565b82525050565b62000a0e81620007ad565b82525050565b62000a1f81620005f6565b82525050565b600060a08201905062000a3c6000830188620009f2565b62000a4b6020830187620009f2565b62000a5a6040830186620009f2565b62000a69606083018562000a03565b62000a78608083018462000a14565b9695505050505050565b600082825260208201905092915050565b600062000aa082620006b6565b62000aac818562000a82565b935062000abe818560208601620004e7565b62000ac9816200041c565b840191505092915050565b6000602082019050818103600083015262000af0818462000a93565b905092915050565b600081519050919050565b6000819050602082019050919050565b600062000b218251620009e8565b80915050919050565b600062000b378262000af8565b8262000b438462000b03565b905062000b508162000b13565b9250602082101562000b935762000b8e7fffffffffffffffffffffffffffffffffffffffffffffffffffffffffffffffff836020036008026200074a565b831692505b5050919050565b60805160a05160c05160e05161010051610120516101405161244662000bf56000396000610812015260006107de0152600061147701526000611456015260006110a5015260006110fb0152600061112401526124466000f3fe6080604052600436106100ab5760003560e01c8063715018a611610064578063715018a61461032a5780637ecebe001461034157806384b0196e1461037e5780638da5cb5b146103af578063c88eb33a146103da578063f2fde38b146104035761024f565b806306fdde031461025457806333eeb1471461027f57806347e7ef24146102aa57806356e1887d146102d357806362a5af3b146102fc5780636a28f000146103135761024f565b3661024f57600560149054906101000a900460ff1615610100576040517f08c379a00000000000000000000000000000000000000000000000000000000081526004016100f790611524565b60405180910390fd5b60003390506000349050600560009054906101000a900473ffffffffffffffffffffffffffffffffffffffff1673ffffffffffffffffffffffffffffffffffffffff1663d0e30db0826040518263ffffffff1660e01b81526004016000604051808303818588803b15801561017457600080fd5b505af1158015610188573d6000803e3d6000fd5b5050505050600560009054906101000a900473ffffffffffffffffffffffffffffffffffffffff1673ffffffffffffffffffffffffffffffffffffffff16600360009054906101000a900473ffffffffffffffffffffffffffffffffffffffff1673ffffffffffffffffffffffffffffffffffffffff168373ffffffffffffffffffffffffffffffffffffffff167f7cfff908a4b583f36430b25d75964c458d8ede8a99bd61be750e97ee1b2f3a9684604051610245919061155d565b60405180910390a4005b600080fd5b34801561026057600080fd5b5061026961042c565b60405161027691906115f7565b60405180910390f35b34801561028b57600080fd5b506102946104be565b6040516102a19190611634565b60405180910390f35b3480156102b657600080fd5b506102d160048036038101906102cc91906116de565b6104d5565b005b3480156102df57600080fd5b506102fa60048036038101906102f5919061171e565b610691565b005b34801561030857600080fd5b5061031161071d565b005b34801561031f57600080fd5b50610328610742565b005b34801561033657600080fd5b5061033f610767565b005b34801561034d57600080fd5b5061036860048036038101906103639190611771565b61077b565b604051610375919061155d565b60405180910390f35b34801561038a57600080fd5b506103936107cb565b6040516103a697969594939291906118bf565b60405180910390f35b3480156103bb57600080fd5b506103c46108cd565b6040516103d19190611943565b60405180910390f35b3480156103e657600080fd5b5061040160048036038101906103fc91906119c3565b6108f6565b005b34801561040f57600080fd5b5061042a60048036038101906104259190611771565b610c33565b005b60606004805461043b90611a94565b80601f016020809104026020016040519081016040528092919081815260200182805461046790611a94565b80156104b45780601f10610489576101008083540402835291602001916104b4565b820191906000526020600020905b81548152906001019060200180831161049757829003601f168201915b5050505050905090565b6000600560149054906101000a900460ff16905090565b600560149054906101000a900460ff1615610525576040517f08c379a000000000000000000000000000000000000000000000000000000000815260040161051c90611524565b60405180910390fd5b60008111610568576040517f08c379a000000000000000000000000000000000000000000000000000000000815260040161055f90611b37565b60405180910390fd5b60003390508273ffffffffffffffffffffffffffffffffffffffff166323b872dd8230856040518463ffffffff1660e01b81526004016105aa93929190611b57565b6020604051808303816000875af11580156105c9573d6000803e3d6000fd5b505050506040513d601f19601f820116820180604052508101906105ed9190611bba565b508273ffffffffffffffffffffffffffffffffffffffff16600360009054906101000a900473ffffffffffffffffffffffffffffffffffffffff1673ffffffffffffffffffffffffffffffffffffffff168273ffffffffffffffffffffffffffffffffffffffff167f7cfff908a4b583f36430b25d75964c458d8ede8a99bd61be750e97ee1b2f3a9685604051610684919061155d565b60405180910390a4505050565b610699610d04565b8273ffffffffffffffffffffffffffffffffffffffff1663a9059cbb82846040518363ffffffff1660e01b81526004016106d4929190611be7565b6020604051808303816000875af11580156106f3573d6000803e3d6000fd5b505050506040513d601f19601f820116820180604052508101906107179190611bba565b50505050565b610725610d04565b6001600560146101000a81548160ff021916908315150217905550565b61074a610d04565b6000600560146101000a81548160ff021916908315150217905550565b61076f610d04565b6107796000610d82565b565b60006107c4600660008473ffffffffffffffffffffffffffffffffffffffff1673ffffffffffffffffffffffffffffffffffffffff168152602001908152602001600020610e46565b9050919050565b60006060806000806000606061080b60017f0000000000000000000000000000000000000000000000000000000000000000610e5490919063ffffffff16565b61083f60027f0000000000000000000000000000000000000000000000000000000000000000610e5490919063ffffffff16565b46306000801b600067ffffffffffffffff8111156108605761085f611c10565b5b60405190808252806020026020018201604052801561088e5781602001602082028036833780820191505090505b507f0f00000000000000000000000000000000000000000000000000000000000000959493929190965096509650965096509650965090919293949596565b60008060009054906101000a900473ffffffffffffffffffffffffffffffffffffffff16905090565b600560149054906101000a900460ff1615610946576040517f08c379a000000000000000000000000000000000000000000000000000000000815260040161093d90611524565b60405180910390fd5b60008611610989576040517f08c379a000000000000000000000000000000000000000000000000000000000815260040161098090611b37565b60405180910390fd5b6000339050600061099982610f04565b9050864211156109de576040517f08c379a00000000000000000000000000000000000000000000000000000000081526004016109d590611c8b565b60405180910390fd5b60007fbdb8db57b2e31447bff640fcc287b05a31c3da45ca140eaa5ba8f3b09ac99506600360009054906101000a900473ffffffffffffffffffffffffffffffffffffffff16848c8c868d604051602001610a3f9796959493929190611cab565b6040516020818303038152906040528051906020012090506000610a6282610f62565b90506000610a72828a8a8a610f7c565b9050600360009054906101000a900473ffffffffffffffffffffffffffffffffffffffff1673ffffffffffffffffffffffffffffffffffffffff168173ffffffffffffffffffffffffffffffffffffffff1614610b04576040517f08c379a0000000000000000000000000000000000000000000000000000000008152600401610afb90611d66565b60405180910390fd5b8b73ffffffffffffffffffffffffffffffffffffffff1663a9059cbb878d6040518363ffffffff1660e01b8152600401610b3f929190611be7565b6020604051808303816000875af1158015610b5e573d6000803e3d6000fd5b505050506040513d601f19601f82011682018060405250810190610b829190611bba565b508b73ffffffffffffffffffffffffffffffffffffffff168573ffffffffffffffffffffffffffffffffffffffff16600360009054906101000a900473ffffffffffffffffffffffffffffffffffffffff1673ffffffffffffffffffffffffffffffffffffffff167fbbbdee62287b5bf3bee13cab60a29ad729cf38109bccbd2a986a11c99b8ca7048e888f604051610c1d93929190611d86565b60405180910390a4505050505050505050505050565b610c3b610d04565b600073ffffffffffffffffffffffffffffffffffffffff168173ffffffffffffffffffffffffffffffffffffffff1603610caa576040517f08c379a0000000000000000000000000000000000000000000000000000000008152600401610ca190611e2f565b60405180910390fd5b610cb381610d82565b50565b6000602083511015610cd257610ccb83610fa7565b9050610cf4565b82610cdc83610cfa565b6000019081610ceb9190611ffb565b5060ff60001b90505b92915050565b6000819050919050565b610d0c61100f565b73ffffffffffffffffffffffffffffffffffffffff16610d2a6108cd565b73ffffffffffffffffffffffffffffffffffffffff1614610d80576040517f08c379a0000000000000000000000000000000000000000000000000000000008152600401610d7790612119565b60405180910390fd5b565b60008060009054906101000a900473ffffffffffffffffffffffffffffffffffffffff169050816000806101000a81548173ffffffffffffffffffffffffffffffffffffffff021916908373ffffffffffffffffffffffffffffffffffffffff1602179055508173ffffffffffffffffffffffffffffffffffffffff168173ffffffffffffffffffffffffffffffffffffffff167f8be0079c531659141344cd1fd0a4f28419497f9722a3daafe3b4186f6b6457e060405160405180910390a35050565b600081600001549050919050565b606060ff60001b8314610e7157610e6a83611017565b9050610efe565b818054610e7d90611a94565b80601f0160208091040260200160405190810160405280929190818152602001828054610ea990611a94565b8015610ef65780601f10610ecb57610100808354040283529160200191610ef6565b820191906000526020600020905b815481529060010190602001808311610ed957829003601f168201915b505050505090505b92915050565b600080600660008473ffffffffffffffffffffffffffffffffffffffff1673ffffffffffffffffffffffffffffffffffffffff1681526020019081526020016000209050610f5181610e46565b9150610f5c8161108b565b50919050565b6000610f75610f6f6110a1565b83611158565b9050919050565b6000806000610f8d87878787611199565b91509150610f9a8161127b565b8192505050949350505050565b600080829050601f81511115610ff457826040517f305a27a9000000000000000000000000000000000000000000000000000000008152600401610feb91906115f7565b60405180910390fd5b80518161100090612169565b60001c1760001b915050919050565b600033905090565b60606000611024836113e1565b90506000602067ffffffffffffffff81111561104357611042611c10565b5b6040519080825280601f01601f1916602001820160405280156110755781602001600182028036833780820191505090505b5090508181528360208201528092505050919050565b6001816000016000828254019250508190555050565b60007f000000000000000000000000000000000000000000000000000000000000000073ffffffffffffffffffffffffffffffffffffffff163073ffffffffffffffffffffffffffffffffffffffff1614801561111d57507f000000000000000000000000000000000000000000000000000000000000000046145b1561114a577f00000000000000000000000000000000000000000000000000000000000000009050611155565b611152611431565b90505b90565b60006040517f190100000000000000000000000000000000000000000000000000000000000081528360028201528260228201526042812091505092915050565b6000807f7fffffffffffffffffffffffffffffff5d576e7357a4501ddfe92f46681b20a08360001c11156111d4576000600391509150611272565b6000600187878787604051600081526020016040526040516111f994939291906121df565b6020604051602081039080840390855afa15801561121b573d6000803e3d6000fd5b505050602060405103519050600073ffffffffffffffffffffffffffffffffffffffff168173ffffffffffffffffffffffffffffffffffffffff160361126957600060019250925050611272565b80600092509250505b94509492505050565b6000600481111561128f5761128e612224565b5b8160048111156112a2576112a1612224565b5b03156113de57600160048111156112bc576112bb612224565b5b8160048111156112cf576112ce612224565b5b0361130f576040517f08c379a00000000000000000000000000000000000000000000000000000000081526004016113069061229f565b60405180910390fd5b6002600481111561132357611322612224565b5b81600481111561133657611335612224565b5b03611376576040517f08c379a000000000000000000000000000000000000000000000000000000000815260040161136d9061230b565b60405180910390fd5b6003600481111561138a57611389612224565b5b81600481111561139d5761139c612224565b5b036113dd576040517f08c379a00000000000000000000000000000000000000000000000000000000081526004016113d49061239d565b60405180910390fd5b5b50565b60008060ff8360001c169050601f811115611428576040517fb3512b0c00000000000000000000000000000000000000000000000000000000815260040160405180910390fd5b80915050919050565b60007f8b73c3c69bb8fe3d512ecc4cf759cc79239f7b179b0ffacaa9a75d522b39400f7f00000000000000000000000000000000000000000000000000000000000000007f000000000000000000000000000000000000000000000000000000000000000046306040516020016114ac9594939291906123bd565b60405160208183030381529060405280519060200120905090565b600082825260208201905092915050565b7f54726561737572793a20636f6e74726163742069732066726f6e7a656e000000600082015250565b600061150e601d836114c7565b9150611519826114d8565b602082019050919050565b6000602082019050818103600083015261153d81611501565b9050919050565b6000819050919050565b61155781611544565b82525050565b6000602082019050611572600083018461154e565b92915050565b600081519050919050565b60005b838110156115a1578082015181840152602081019050611586565b60008484015250505050565b6000601f19601f8301169050919050565b60006115c982611578565b6115d381856114c7565b93506115e3818560208601611583565b6115ec816115ad565b840191505092915050565b6000602082019050818103600083015261161181846115be565b905092915050565b60008115159050919050565b61162e81611619565b82525050565b60006020820190506116496000830184611625565b92915050565b600080fd5b600073ffffffffffffffffffffffffffffffffffffffff82169050919050565b600061167f82611654565b9050919050565b61168f81611674565b811461169a57600080fd5b50565b6000813590506116ac81611686565b92915050565b6116bb81611544565b81146116c657600080fd5b50565b6000813590506116d8816116b2565b92915050565b600080604083850312156116f5576116f461164f565b5b60006117038582860161169d565b9250506020611714858286016116c9565b9150509250929050565b6000806000606084860312156117375761173661164f565b5b60006117458682870161169d565b9350506020611756868287016116c9565b92505060406117678682870161169d565b9150509250925092565b6000602082840312156117875761178661164f565b5b60006117958482850161169d565b91505092915050565b60007fff0000000000000000000000000000000000000000000000000000000000000082169050919050565b6117d38161179e565b82525050565b6117e281611674565b82525050565b6000819050919050565b6117fb816117e8565b82525050565b600081519050919050565b600082825260208201905092915050565b6000819050602082019050919050565b61183681611544565b82525050565b6000611848838361182d565b60208301905092915050565b6000602082019050919050565b600061186c82611801565b611876818561180c565b93506118818361181d565b8060005b838110156118b2578151611899888261183c565b97506118a483611854565b925050600181019050611885565b5085935050505092915050565b600060e0820190506118d4600083018a6117ca565b81810360208301526118e681896115be565b905081810360408301526118fa81886115be565b9050611909606083018761154e565b61191660808301866117d9565b61192360a08301856117f2565b81810360c08301526119358184611861565b905098975050505050505050565b600060208201905061195860008301846117d9565b92915050565b600060ff82169050919050565b6119748161195e565b811461197f57600080fd5b50565b6000813590506119918161196b565b92915050565b6119a0816117e8565b81146119ab57600080fd5b50565b6000813590506119bd81611997565b92915050565b600080600080600080600060e0888a0312156119e2576119e161164f565b5b60006119f08a828b0161169d565b9750506020611a018a828b016116c9565b9650506040611a128a828b016116c9565b9550506060611a238a828b01611982565b9450506080611a348a828b016119ae565b93505060a0611a458a828b016119ae565b92505060c0611a568a828b0161169d565b91505092959891949750929550565b7f4e487b7100000000000000000000000000000000000000000000000000000000600052602260045260246000fd5b60006002820490506001821680611aac57607f821691505b602082108103611abf57611abe611a65565b5b50919050565b7f54726561737572793a20616d6f756e742073686f756c6420626520677265617460008201527f6572207468616e207a65726f0000000000000000000000000000000000000000602082015250565b6000611b21602c836114c7565b9150611b2c82611ac5565b604082019050919050565b60006020820190508181036000830152611b5081611b14565b9050919050565b6000606082019050611b6c60008301866117d9565b611b7960208301856117d9565b611b86604083018461154e565b949350505050565b611b9781611619565b8114611ba257600080fd5b50565b600081519050611bb481611b8e565b92915050565b600060208284031215611bd057611bcf61164f565b5b6000611bde84828501611ba5565b91505092915050565b6000604082019050611bfc60008301856117d9565b611c09602083018461154e565b9392505050565b7f4e487b7100000000000000000000000000000000000000000000000000000000600052604160045260246000fd5b7f54726561737572793a206578706972656420646561646c696e65000000000000600082015250565b6000611c75601a836114c7565b9150611c8082611c3f565b602082019050919050565b60006020820190508181036000830152611ca481611c68565b9050919050565b600060e082019050611cc0600083018a6117f2565b611ccd60208301896117d9565b611cda60408301886117d9565b611ce760608301876117d9565b611cf4608083018661154e565b611d0160a083018561154e565b611d0e60c083018461154e565b98975050505050505050565b7f54726561737572793a20696e76616c6964207369676e61747572650000000000600082015250565b6000611d50601b836114c7565b9150611d5b82611d1a565b602082019050919050565b60006020820190508181036000830152611d7f81611d43565b9050919050565b6000606082019050611d9b600083018661154e565b611da8602083018561154e565b611db5604083018461154e565b949350505050565b7f4f776e61626c653a206e6577206f776e657220697320746865207a65726f206160008201527f6464726573730000000000000000000000000000000000000000000000000000602082015250565b6000611e196026836114c7565b9150611e2482611dbd565b604082019050919050565b60006020820190508181036000830152611e4881611e0c565b9050919050565b60008190508160005260206000209050919050565b60006020601f8301049050919050565b600082821b905092915050565b600060088302611eb17fffffffffffffffffffffffffffffffffffffffffffffffffffffffffffffffff82611e74565b611ebb8683611e74565b95508019841693508086168417925050509392505050565b6000819050919050565b6000611ef8611ef3611eee84611544565b611ed3565b611544565b9050919050565b6000819050919050565b611f1283611edd565b611f26611f1e82611eff565b848454611e81565b825550505050565b600090565b611f3b611f2e565b611f46818484611f09565b505050565b5b81811015611f6a57611f5f600082611f33565b600181019050611f4c565b5050565b601f821115611faf57611f8081611e4f565b611f8984611e64565b81016020851015611f98578190505b611fac611fa485611e64565b830182611f4b565b50505b505050565b600082821c905092915050565b6000611fd260001984600802611fb4565b1980831691505092915050565b6000611feb8383611fc1565b9150826002028217905092915050565b61200482611578565b67ffffffffffffffff81111561201d5761201c611c10565b5b6120278254611a94565b612032828285611f6e565b600060209050601f8311600181146120655760008415612053578287015190505b61205d8582611fdf565b8655506120c5565b601f19841661207386611e4f565b60005b8281101561209b57848901518255600182019150602085019450602081019050612076565b868310156120b857848901516120b4601f891682611fc1565b8355505b6001600288020188555050505b505050505050565b7f4f776e61626c653a2063616c6c6572206973206e6f7420746865206f776e6572600082015250565b60006121036020836114c7565b915061210e826120cd565b602082019050919050565b60006020820190508181036000830152612132816120f6565b9050919050565b600081519050919050565b6000819050602082019050919050565b600061216082516117e8565b80915050919050565b600061217482612139565b8261217e84612144565b905061218981612154565b925060208210156121c9576121c47fffffffffffffffffffffffffffffffffffffffffffffffffffffffffffffffff83602003600802611e74565b831692505b5050919050565b6121d98161195e565b82525050565b60006080820190506121f460008301876117f2565b61220160208301866121d0565b61220e60408301856117f2565b61221b60608301846117f2565b95945050505050565b7f4e487b7100000000000000000000000000000000000000000000000000000000600052602160045260246000fd5b7f45434453413a20696e76616c6964207369676e61747572650000000000000000600082015250565b60006122896018836114c7565b915061229482612253565b602082019050919050565b600060208201905081810360008301526122b88161227c565b9050919050565b7f45434453413a20696e76616c6964207369676e6174757265206c656e67746800600082015250565b60006122f5601f836114c7565b9150612300826122bf565b602082019050919050565b60006020820190508181036000830152612324816122e8565b9050919050565b7f45434453413a20696e76616c6964207369676e6174757265202773272076616c60008201527f7565000000000000000000000000000000000000000000000000000000000000602082015250565b60006123876022836114c7565b91506123928261232b565b604082019050919050565b600060208201905081810360008301526123b68161237a565b9050919050565b600060a0820190506123d260008301886117f2565b6123df60208301876117f2565b6123ec60408301866117f2565b6123f9606083018561154e565b61240660808301846117d9565b969550505050505056fea26469706673582212203e544a482272c570ee47b66fb168b9dca1b04dcc8bffe894a3050c2e79fb2b6b64736f6c63430008120033",
  "linkReferences": {},
  "deployedLinkReferences": {}
}